:020000040800F2
:10100000600D0020D11000087D1F00083D1700086A
:1010100000000000000000000000000000000000D0
:10102000000000000000000000000000792000081F
:1010300000000000000000007F1F00087B20000867
:10104000E3100008E3100008E3100008E3100008B4
:10105000E3100008E3100008E31000082917000857
:10106000E310000831160008591600087916000828
:10107000B5140008E5210008E3100008E31000089B
:101080000D2200083522000800000000A5210008FC
:10109000B9210008E1210008E3100008E31000086E
:1010A000E3100008E3100008E310000851220008D4
:1010B000E310000800000000E31000080348854624
:1010C00000F0B4F900480047F93A0008600D00202C
:1010D0000448804704480047FEE7FEE7FEE7FEE7D6
:1010E000FEE7FEE7A1210008BD10000803460B4300
:1010F0009B0703D009E008C9121F08C0042AFAD2CE
:1011000003E00B780370401C491C521EF9D2704753
:10111000D2B201E00270401C491EFBD2704700228F
:10112000F6E710B513460A4604461946FFF7F0FFE6
:10113000204610BDF8B502464A40D40F42004B008D
:1011400052085B089A4202D20246084611464A00FB
:1011500023D0C30D4A00DDB2120EAD1A202D35DAB0
:1011600049020126490AF6058A19002C00D052428C
:1011700020214F1B1146B9402A411018C20D9A4236
:1011800021D0002C17D0012D08DCDA05801AD20FEF
:101190008019D207DBB200F00FF9F8BDDA05801A2A
:1011A000012340001B06C01880185A428018CA0F3D
:1011B0001043490007E04908C2071143DA05801AC5
:1011C00080194008801800F0EFF8F8BD6100012296
:1011D000511A001BF7E70122D2075140AAE701226A
:1011E000D2075040A6E770B502464A40D50F4000EE
:1011F0004A00ED0740085208002814D0002A12D0F7
:10120000C40DD30D41020120C0055202490A520A01
:10121000E41A091812187D34914201D3641C00E0CD
:101220004900002C01DA002070BD0023914201D357
:10123000891A0343400849000028F7D100290AD041
:10124000914202D10121C90705E0914201D2012159
:1012500001E00121C943E005C018401900F0A4F8DD
:1012600070BD0122D207002800DB101A002900DB24
:10127000511A814201D80120704700207047012295
:10128000D207002800DB101A002900DB511A814226
:1012900001D201207047002070470122D2070028A8
:1012A00000DB101A002900DB511A814201D3012012
:1012B0007047002070470122D207002800DB101A77
:1012C000002900DB511A814201D90120704700201A
:1012D0007047C217C10F504010B54018CA07962377
:1012E000002100F069F810BDC20F41004002012347
:1012F000400ADB05D207090EC0187F2901DA002059
:101300007047962903DC9623591AC84001E09639A4
:101310008840002AF4D04042704770B50446002946
:1013200003D000202022012310E0002801D000205B
:10133000C043C046C0460DE02546D5408D4205D38A
:101340000D469540641B1D46954040191546521E9A
:10135000002DF1DC214670BD70B5002504462E46F7
:10136000002911D0002C01DA01254442002901DABC
:10137000012649422046FFF7D0FFB54200D0404247
:10138000002D00D0494270BD002C02DA0121C907AE
:1013900002E0002C00DD03490846C046C046214655
:1013A00070BD0000FFFFFF7F002904DA401C4900E8
:1013B00001D140084000704770B40024050C05D1ED
:1013C0001024000402D1002921D01124050E01D1DE
:1013D00000020834050F01D10001241D850F01D141
:1013E0008000A41C002801DB4000641C002908D0F8
:1013F00020252E1B0D46F540A14000D00121294398
:10140000084301061B1B000ADB1D02D5002070BC2F
:101410007047DB05181880180029F8DA401C4900CD
:10142000F5D170BC40084000704700001CB5094869
:1014300000900948019005460126009C05E0E368FC
:1014400007CC33430C3C98471034AC42F7D3FFF73A
:1014500039FE0000F86D0008186E000870B58C1891
:101460000578401C6B075B0F01D10378401C2A11E3
:1014700006D10278401C03E006780E70401C491C1F
:101480005B1EF9D12B0705D40023521E0DD40B701F
:10149000491CFAE70378401CCB1A921C03E01D7824
:1014A0000D70491C5B1C521EF9D5A142D8D30020F7
:1014B00070BD000080B5A0480168890204D50121F3
:1014C0004905016002F0ACF880BDC046054881883E
:1014D000054A11800188054A118040880449088026
:1014E0007047C046E4050020A4050020A8050020A0
:1014F0008E050020F0B593B000270997089707974D
:101500000697012148020B46029144494A6802436A
:101510004A604A6802400A920A9858040A680243DC
:101520000A60096801400A91032605960A9840203E
:10153000019004900920C40604AD2046294600F01D
:101540002FF9089705960820039004902046294615
:1015500000F026F932480168324A0A40026031033D
:1015600002688A430260016820220A43026001681F
:10157000019CA1430160016880220A43026031029C
:1015800002688A43029B190251180160B102026885
:101590008A4399021E4651180160234D2868039919
:1015A00008432860286820432860180429680143FC
:1015B0002960072080051D490A688243D805101854
:1015C0000860D8070F901297119710972C46283C67
:1015D0000FA9204600F0B4F80E970D960C970B97C4
:1015E0000A970AA9204600F0C5F80420C0432946FE
:1015F0001C390A6802400A60294614390A68062321
:101600001343B3430B60243D2968014029602868D7
:1016100003998843286013B0F0BDC04614100240FF
:1016200008000240EFBFFFFF2824014008270140C7
:1016300010B5104C2068800703D42068000707D439
:1016400010BD01206060FFF741FF20680007F7D55B
:101650000820606010BDC04606480168890602D4B3
:101660000168090605D510214160C1690122914335
:10167000C16170470000024070B52448007800281E
:1016800013D02148007800280FD0012420032049DE
:101690000A6802430A600020086421480078002894
:1016A00027D003F09FFC022026E001241848011FE8
:1016B0000A6852040CD5174A1278002A08D0A203EF
:1016C000154B1D6802262E430825AE431E6002609E
:1016D0000A68920405D40968090401D52103016050
:1016E00070BD21030160016CA143016405F08AF81B
:1016F00004E003F08DFF20460A490870E003074923
:101700000A6802430A6070BD50050020570500209A
:10171000040002405C050020200400401004014049
:10172000100500203905002080B50120C0030249C2
:10173000086003F0CDFB80BD14040140FEE700000B
:101740008268D20712D1C268094B13404A681A4313
:101750008B681343CA681A43C26003229207036965
:1017600093430968194301610020704701207047C5
:10177000C73FFFFF70B58268D2070CD1C268074B24
:10178000134074C909681A4322432A4332430A4367
:10179000C260002070BD012070BDC0463CC2FEFF8B
:1017A000F0B584B00B68002B49D000250191009062
:1017B00010E07F437F433B460F2159438E435D43F7
:1017C0003543009805510199039D6D1C0B681C461B
:1017D000EC4035D00122AA401A40F6D003951446B9
:1017E00054434B6826465E43032767430568BD4361
:1017F00035430560FE4302935D1E2346012D05D847
:101800008D685D43876837402F4387600D695D436E
:10181000C76837402F43C760029D022D039DD4D176
:10182000170A05D024244D690659002FC1D104E0C0
:1018300020244D690659002FBBD15B43BCE7002330
:101840004A68521E012A05D8C968594342689A431A
:101850000A434260002004B0F0BD000080B57D2145
:10186000C900FFF75AFD401E034948600020886008
:101870000520086080BDC04610E000E0B0B5044619
:101880003E4D28680C2101403D4808290FD12968A8
:10189000C90300D43B48A96A0F220A40511CFFF734
:1018A0003CFD014628688002000F801C48432060F0
:1018B00029680906090F354A515CC84060602968EB
:1018C0004905490F304A515CC840A060B0BDC046D0
:1018D00010B5002801D0002010BD284CE16A03207B
:1018E000084003281AD002281FD0012823D12068DD
:1018F0000C210140224808293FD12168C90300D4A6
:101900002048A16A0F220A40511CFFF706FD01463C
:1019100020688002000F801C484310BD201F006813
:101920008007C1171648084010BD0120C103E069B7
:101930008003084010BD20680C2101401048082990
:101940000FD12168C90300D40E48A16A0F220A40B2
:10195000511CFFF7E2FC014620688002000F801C4A
:101960004843216822685205520F074B9A5C0906CA
:10197000090F064B595CC840D04010BD041002400E
:1019800000127A0000093D00DE6B0008CE6B0008F3
:10199000014908607047C046A8010020B0B51F2269
:1019A000D30234C99C433F239B029D430B782B43B6
:1019B00023430F242403A2431A4303239B034C68AD
:1019C0008D689C4314434988034A0A4022432A43B2
:1019D00042640020B0BDC046FF1F0000B0B50568DE
:1019E00001229407A04205D0244B984202D0244BF8
:1019F000984217D170239D434B682B43214DA84239
:101A000014DD214CA04206DC1C4CA04216D0214C17
:101A1000A04213D02FE01D4CA0420FD01C4CA0427E
:101A20000CD028E02B46174DA842EADCA04205D096
:101A3000134CA04202D0184CA0421CD10324240213
:101A4000A343CC681C4304608B68C3620B88836229
:101A5000994BC3189B0A8405E318072B06D8144634
:101A60009C40E1231C4201D0097C01634169114380
:101A700041610020B0BD1C46E5E7C046002C014096
:101A800000040040FF2B0140FF430140004801409B
:101A9000004401400040014000200040F0B583B008
:101AA0000123FF2945DC01296BD0102900D0FFE07C
:101AB000016A102399430162016A30239943136933
:101AC0005B085B010B435168090119437A4BC3184A
:101AD0009B0A8405E618456817688469072E1ED896
:101AE00002970127B740E126374217D00326B602F6
:101AF000B5435369019397692646D469BF00714B7A
:101B00003B402B43E50034461D43C0239943019BD2
:101B10005B08DB010B43916889011943029F456013
:101B200073231B029C433B0223438361D26882637D
:101B3000BCE001273D02A9425FD03D03A94200D08D
:101B4000B6E0016AA94301625B494118890A83052D
:101B50005D18016A4368146800945468029414691B
:101B60000194C669072D00D989E03C46AC40E125C7
:101B70002C4200D183E0BC03A3439469A4011C431D
:101B80007EE00127F943036A0B40036213690B40AF
:101B9000046A032101918C431C4316685168214358
:101BA000454BC3189B0A8405E31845688469072BD5
:101BB0001BD802963E469E40E1231E4214D0019B54
:101BC0001B029D437B02566901969769D6699F4324
:101BD0002F4375003D430C239943019B5B08DB00B9
:101BE0000B43916889001943029E456073239C430F
:101BF00034438461D268426358E0016AA9430162B8
:101C00002F49491C13691B020B4003210291090251
:101C1000056A8D431D43516809022943264BC318A9
:101C20009B0A8505EB1846681468C569072B1ED802
:101C30009F40E1231F421AD0029B1B039E4353691E
:101C4000009393690194D4691B011C4F1F403743D3
:101C500066013E43029B9B0299431A4B1B1D009C4D
:101C6000A4021C400C43916889022143019C4660F8
:101C700073239D432543C561D268C26316E01C46A9
:101C8000446073231B029E43009B1B023343C361CA
:101C9000D2680264032212039143084A1032019B66
:101CA0001B0313400B4302990903194301620023EC
:101CB000184603B0F0BDC04600D4FEBFF0DFFFFF02
:101CC000FFFDFFFFFCF7FFFF70B584B0044600681E
:101CD0000125C00724D10E462068244901407068C0
:101CE0000843F168014330690843B1690143216049
:101CF0000320010362688A43B168114361600002F6
:101D0000A168814370690843A060194884420AD0E1
:101D10001848844204D10020FFF7DAFD002808D1DA
:101D2000284604B070BD01A8FFF7A8FD039800285D
:101D3000F6D031680029F3D00122D203B36993426F
:101D40000AD140004A081018FFF7E7FA0A49014093
:101D50000007400F401804E04A081018FFF7DDFAAA
:101D600080B2E0600025284604B070BDF369FFFF33
:101D70000044004000380140F0FF000006480749D9
:101D8000016007490160022141607D2149018160B4
:101D9000044901607047C04600300040CCCC0000D0
:101DA00055550000AAAA0000F0B59FB000251D956A
:101DB0001C951B951A9519950E950124E302039322
:101DC000694A50681843506019A90D740D80506815
:101DD00018401190184631381B901198634E3046C8
:101DE000FFF7FCFD30688021049108433060B06843
:101DF0005F490140B160B069082101910843B061B9
:101E000012951395149515951695179518956020AC
:101E1000119011AF304621463A46FFF73FFE0420AD
:101E2000C1430091B0690840B061B06903990843AB
:101E3000B06113951295102130463A46FFF72EFEF9
:101E4000B0694C490840B061F06901990843F061FC
:101E5000139512952102019130463A46FFF71EFE76
:101E6000F06900990840F061F06903990843F06156
:101E700013951295210330463A46FFF70FFEF0699D
:101E80003C490840F06170687021884370600BA97C
:101E9000CD812D200873B068049A9043B0601095EE
:101EA00060030F900D950C950B953046FFF776FD6E
:101EB000274660042C4B19680143196019680140DA
:101EC00005910598A00402941968014319601968E6
:101ED00001401E9102240A940995089507950694DD
:101EE00005941E98244805AE3146FFF759FC0A9424
:101EF000099508950795069405971F483146FFF701
:101F00004FFC0A9409950895079506940498059046
:101F10000920C70638463146FFF742FC0A94099566
:101F20000895079506940298800205903846314638
:101F3000FFF736FC0A9409950895079506940298D0
:101F40004002059038463146FFF72AFC0A9409956D
:101F50000895079506940198059038463146FFF795
:101F60001FFC1FB0F0BDC04614100240002C014001
:101F7000F8BFFFFFFFFBFFFF0004004870477047FA
:101F8000F0B581B0374801680126B14301602024D3
:101F9000354D285D297F01290AD1401C2855C1B241
:101FA000072903D32E55314806773046304009E0E3
:101FB000411E2955080603D1062129552B480677CD
:101FC00030468843E876EFF3108072B6274FF87FEB
:101FD000002802D1285D00F043FA62B600F012FA40
:101FE000F87C797B01432248009407D080697D21E9
:101FF0000901884202D9EE75002002E0E97D4842DD
:1020000048412D2100227A542F217A546021795A97
:102010005622AB5A03265E4373189E08AE521E0A20
:10202000EC7974434C26BC539B035B0C1B1BBB52CB
:10203000009AAA5C52000E4BD2185185002805D197
:10204000186A0C49884208D901B0F0BD00F0DAFFE7
:10205000074B186A07498842F6D8401C186201B03D
:10206000F0BDC0460C200040C0000020300500201C
:10207000AC0500200F27000070477047B0B54549F8
:102080000A68012002430A600968434D2968014338
:1020900029602968890708D42968890705D429682F
:1020A000890702D429688907F3D52B6880210B435F
:1020B000782293432B606B6B03436B636B6B9B07C3
:1020C00008D46B6B9B0705D46B6B9B0702D46B6BBF
:1020D0009B07F3D56B6B0B4393436B63696A0143B7
:1020E0006962696A890708D4696A890705D4696AD7
:1020F000890702D4696A8907F3D53D2109046A6812
:102100008A430521C90451186960E96A0F22914385
:10211000E96201062A680A432A6041062A680A42DF
:1021200008D12A680A4205D12A680A4202D12A68DF
:102130000A42F3D06968F0229143696007210902DD
:102140006A688A436A60696802220A4382436A6055
:1021500069680C20014008290BD0696801400829F2
:1021600007D069680140082903D06968014008293F
:10217000EED10A4C2046FFF771FB2046FFF708FC22
:10218000686B042188436863286B032188432863B4
:10219000B0BDC0460020024000100240006CDC02CE
:1021A0007047000080B50120C04302490860FFF776
:1021B000E7FE80BD102000400220C04307490A68A6
:1021C000920703D40A68D20704D1704708600A68EE
:1021D000D207FAD0401C08607047C046104001404A
:1021E000704700000220C04307490A68920703D4E1
:1021F0000A68D20704D1704708600A68D207FAD08B
:10220000401C08607047C046102C01400220C043AB
:1022100007490A68920703D40A68D20704D17047B5
:1022200008600A68D207FAD0401C08607047C046B0
:102230001004004080B505480168C90704D0012199
:10224000C943016004F04AF880BDC0461010004048
:1022500080B508480168C9060AD5102141600648C2
:10226000016801229143016003F040FA02F0A4FEEC
:1022700080BDC0461C3801403000024081B00020C3
:1022800000902248026822490A405218183202601F
:102290000268002A08D50268002A05D50268002ACB
:1022A00002D50268002AF3D401220092009B002B81
:1022B00017D0009B5B1E0093009B002B11D0009B4E
:1022C0005B1E0093009B002B0BD0009B5B1E0093BA
:1022D000009B002B05D0009B5B1E0093009B002BF6
:1022E000E7D103680B4013430360014608390A68CD
:1022F000D20708D10A68D20705D10A68D20702D1ED
:102300000968C907F1D001B07047C04608240140F0
:10231000E8FFFF7F70B5EE4B1868042101430820E9
:102320008143196002249C6203210A050920C0062A
:102330000568954301221605AD1905609502856271
:102340001D681543A5431D609A628B0404689C4375
:102350009304E3180360530283628B0304689C4375
:102360009303E318036080238362090403688B43AB
:102370001104591801601102816270BD70B5D34912
:102380000A78D34C20680C239843002A03D00822F3
:102390001043206004E00422104320600220A06269
:1023A000032213050920C00605689D4301235E052D
:1023B000AD1905600E7825689543002E03D00226DE
:1023C0003543256002E01D432560A362940405683F
:1023D000A543DC042C1904600C7895030168A9431B
:1023E000002C03D0DC032143016004E09C03214363
:1023F000016080218162110402688A4359045118E6
:10240000016070BD124A11781248042901D00129D7
:1024100002D1512101601178052901D0022902D190
:10242000612101601178062901D0032901D14121E0
:1024300001600120400508490A780849002A03D0B4
:1024400000220A604860704700224A6008607047B6
:10245000E00000201C000140DB00002008040140D7
:1024600070B5401E052800D92EE1C0467844007999
:1024700040008744020F2A57759394480278944984
:1024800008680C239843002A00D19FE008221043DB
:102490000860A0E08E4B18680421014308208143A6
:1024A000196002249C6203210A050920C006056800
:1024B000954301221605AD190560950285621D68D8
:1024C0001543A5431D609A6119E0814B18680421EA
:1024D000014308208143196002249C6103210A05FD
:1024E0000920C0060568954301221605AD1905604F
:1024F000950285621D681543A5431D609A628B0491
:1025000004689C439304E3180360530283626F4B97
:102510001C788D030368AB43002C4BD0D4032343BA
:1025200003604CE06A4B1868042101430820814392
:10253000196002249C6103210A050920C006056870
:10254000954301221605AD190560950285625F4D20
:102550002E781D688D43002E5ED025431D605EE001
:102560005B4B186804210143082081431960022451
:102570009C6203210A050920C006056895430122D3
:102580001605AD19056095028562504D2E781D68BF
:102590008D43002E52D025431D6052E04B480278F7
:1025A0004B4908680C239843002A60D00822104346
:1025B000086061E09403234303608023836209047D
:1025C00003688B4351045918016070BD0422104305
:1025D000086002208862032213050920C0060468EF
:1025E0009C4301235D05641904600C681C430225AB
:1025F000AC430C608B61910404688C4399046118AE
:10260000016059028162910304688C439903611847
:102610000160802181624FE015431D609A628B0446
:1026200004689C43D304E31803608B0304689C4351
:102630009303E31803608023836210E015431D6059
:102640009A628B0404689C43D304E31803608B03F1
:1026500004689C439303E3180360802383610904A7
:1026600003688B4311045918016011022BE0042206
:102670001043086002208862032213050920C00667
:1026800004689C4301235D05641904600C681C43C5
:102690000225AC430C608B62910404688C4399045E
:1026A0006118016059028162910304688C439903A7
:1026B0006118016080218161110402688A43190454
:1026C000511801601902816270BDC046C20000202D
:1026D00000040048F0B58DB0DE480168C56F6A1A85
:1026E000DD4E728193B25A093281DD4C2488A342B7
:1026F00000D80BE1D94C2488A34200D306E10A9507
:102700004368591A012500230C939142294600D8A9
:102710000C990991F1618168C368591A914229465F
:1027200000D80C990891316201694369591A9142A4
:10273000294600D80C99079171628169C369591AB9
:102740009142294600D80C990691B162016A436A08
:10275000591A9142294600D80C990591F162816A73
:10276000C36A591A91422F4600D80C9F3763016BF8
:10277000436B591A91422C4600D80C9C7463816BB0
:10278000C36B591A9142294600D80C990B91B16339
:10279000016C436C591A9142294600D80C99039157
:1027A000F163816CC36C591A9142294600D80C9987
:1027B00002913164016D436D591A9142294600D846
:1027C0000C9901917164816DC36D591A914229462A
:1027D00000D80C990491B164016E436E591A91426C
:1027E000294600D80C990091F164816EC36E591A84
:1027F00091422B4600D80C9B3365016F466F711ACE
:102800009142294600D80C99934E7165806F0A9EBB
:10281000301A904200D80C9D8F4885650998059A1A
:10282000424003984240D000089A5740029A5740CD
:10283000BA001718079844400198444064000B9868
:10284000069A50400B900098C0009A00101849005A
:102850004618844800788449097801430DD100F076
:102860002BFD002809D07C490879401C0871C0B2B2
:10287000652802D301207B490870701939190B9B18
:10288000049A5340774A1278002A01D00F22504010
:10289000714D1943884236D11C353CCD6E48C66A0D
:1028A000076B416B806B92025B02134322021A4357
:1028B000EB011343B201684E1A437B011343090134
:1028C0001943C000084334463C341ECC8D000543F8
:1028D000510029431943CC4A00201080B289521C70
:1028E000B281012C02D1614A0123137030290FDB20
:1028F0007278002A0CD05E4800220270C64801801F
:10290000B2700DB0F0BDE889401CE8810DB0F0BD9B
:102910004A1E2E2A06D856480170BF48002202805F
:10292000C8B20EE0002902D05148007809E03178A1
:10293000012901D1002171704D490870B649088004
:10294000B0700028E2D04B4909780029DED1464911
:1029500009780029DAD0F178884202D00021B170DC
:10296000F070052805D3B178491CB170C9B20629A9
:10297000CCD30025B570411E142900D963E0C046B0
:102980007944097949008F440A14181C205E242BCD
:1029900032365E3B45505E5E5E5E5E570E003849E5
:1029A000012008704FE03448007834490870152041
:1029B00049E033490220087045E03149032008709E
:1029C00041E02F49042008703DE02D4905200870A2
:1029D00039E02A480121017027480570072032E0BC
:1029E0002648057024480121017008202BE0884802
:1029F0000570092027E08648012101700A2022E0A5
:102A000002F0EAFC1C480078401C1D490870184878
:102A1000007818E00121717107204002F0803278BF
:102A20000D20012A0FD171700DE075710720400251
:102A3000FF30F0800E2006E00F4800780121081AD0
:102A40000E49087014200A490D700E4908700DB027
:102A5000F0BDC0465C060020900400202401002048
:102A60002005002050050020570500204E050020BD
:102A70005C070020530500203A050020DC00002000
:102A80004B050020F4080020F0B581B0564E03CE6F
:102A9000081A564C0119574A083E91420BD8564D18
:102AA0006978002909D0E97800295FD1A97800293F
:102AB0002DD028892CE04E4E7FE055490978002919
:102AC0000DD054490A887D21CB00904216D94B4C39
:102AD000248809010091511C5B1C224612E04749E1
:102AE0000A884A4909887D231B012F3300932F232D
:102AF00001F0F6FF312807DA002005E04349098894
:102B00000093002301F0ECFF28613F4E55E028813F
:102B1000491CA970394F398880B200F0B1FB3328C5
:102B200002DB002068701AE038880721414305CE97
:102B3000101A4018C0083880A978083E33290ED3EF
:102B4000193881B22E4A8918CA0F891849082122DA
:102B50002C4B99540121E970388002F0E9F838884B
:102B60002881E8780028D0D003CE081A29797D2260
:102B7000D200FA32904208D2491C2971234A1388A4
:102B800007265E433018C0081080C8B21E4E4C287D
:102B900013D31E48018819318AB2A2183332D30FD9
:102BA000D21852082023174CE25400246C70018084
:102BB00002F012FC2C7102F097F8002030801648C9
:102BC00002880D4909698C1A144B1B689C4201DD6F
:102BD000D11806E0541A9C4203DDD11A018001B0DD
:102BE000F0BD018001B0F0BD5C060020DFFCFFFFFE
:102BF0007E0500207605000014050020EE00002070
:102C00002AF9FFFF5D07002088050020EC00002066
:102C10003B050020F000002082050020B4010020C8
:102C2000F0B58FB00024059401260696B2030192F8
:102C30003C4841681143416041681140089108993E
:102C4000B10402680A4302600068084008900794D3
:102C500002200390089840200090029003250495DC
:102C6000314802A9FEF79CFD304F386830490140D9
:102C7000396028033968814339603868202101436D
:102C8000396038680099884338603868802101438A
:102C900039602802396881433960A8023968814364
:102CA0003960FF20000623490A688243F0071018A4
:102CB0000860F006204908600E940D9404200C90E2
:102CC0000B940A9409941D4808901D4C08A92046AD
:102CD000FEF7FAFFB002A1688143A160A068082155
:102CE0000143A160206830432060019910313868A9
:102CF0000840102805D120462430F8601148B860FB
:102D000004E020462430B8600E48F8607868BC497A
:102D100001404031796020681021014321600FB0EB
:102D2000F0BDC046141002400004004830000240CC
:102D3000EFBFFFFF18E400E000E100E0A06806003C
:102D400000380140F5050020184900220A600A6891
:102D5000824208D20A68824205D20A68824202D2BE
:102D60000A688242F3D3704710B5104900220A6006
:102D70004B2292014A600A46103A146801231C4310
:102D800014600A2444430868A04208D20868A0429C
:102D900005D20868A04202D20868A042F3D33020CE
:102DA000486010681843106010BDC04624480140B8
:102DB000F0B57F4BC9337F4843807F490F680025BA
:102DC0002A4603E052182835782D77D07A494E19D3
:102DD0007168CF1B1BD1B768791A21D1F168CF1B5D
:102DE00027D13769791A2DD17169CF1B33D1B769D2
:102DF000791A39D1F169CF1B3FD1376A791A45D198
:102E0000716ACF1B4BD1B76A791ADCD050E09CB203
:102E1000A74201D247803B46D219B768791ADDD064
:102E20009CB2A14201D241800B465218F168CF1BDF
:102E3000D7D09CB2A74201D247803B46D21937690E
:102E4000791AD1D09CB2A14201D241800B465218CE
:102E50007169CF1BCBD09CB2A74201D247803B46C1
:102E6000D219B769791AC5D09CB2A14201D241806A
:102E70000B465218F169CF1BBFD09CB2A74201D2BA
:102E800047803B46D219376A791AB9D09CB2A14221
:102E900001D241800B465218716ACF1BB3D09CB24D
:102EA000A74201D247803B46D219B76A791A8AD025
:102EB0009CB2A14286D241800B4683E751093F4D27
:102EC000A9613F4C2178012925D1991E89B2022997
:102ED0000AD80F21C9018A4206D20021A971394EB0
:102EE00031700E2636490EE0591F89B2032912D8D7
:102EF0001921C9018A420ED2324901260E70304989
:102F00000E70A91D0726304F3E7001260E7020213D
:102F100001702E490E701F46C93F2D4909780129BD
:102F20000DD1BDB2224EB54209D2264D2F262E70AC
:102F30000125274E357002260670244E35702578FF
:102F40000D4300D0F0BD991E89B202290AD80F2185
:102F5000C9018A4206D20021184A9171194A11709A
:102F60000E210EE0591F89B2032914D81921C90175
:102F70008A4210D2134901220A7022700F498C1D17
:102F80000721114A11700121217020210F4A0123CC
:102F900013700170F0BDB9B2054A9142D2D209490D
:102FA0002F220A7001210A4A11700221EEE7C04661
:102FB000574D0000200100205C0600201405002071
:102FC0005B050020B0010020110500205A050020FB
:102FD0005C0500200748084981600849C1604168D4
:102FE000074A0A40D11C4160016801220A4302607D
:102FF0007047C0460800024040240140E40500201C
:103000000000FFFF012040057D490A6802430A6075
:103010007047C046F0B58DB06F4801680126314356
:103020000160016810220A430260330201681943FB
:103030000160016804220A430260016840220A43D9
:103040000260B10202680A430260310302680A4367
:10305000026064210162014620390A6832430A6035
:10306000F203416A0392114341620C380168314313
:1030700001605A48016A31430162016831430160CD
:1030800000250B95B00456490A6802430A600A6895
:1030900002400C920C9870040A6802430A600968A6
:1030A00001400C910C984F4C019323602020059017
:1030B00020600820009020600A95099508950796E1
:1030C00006932746283F06A904913846FEF768FB79
:1030D0000A9509950895079605980690384604992B
:1030E000FEF75EFB02950A95099508950796009DE7
:1030F000069538460499FEF753FB01982060103C72
:10310000059820602560384801460C390A6832432A
:103110000A60816831438160016831430160016860
:10312000B143016031480168314301604169314375
:103130004161B00701683143016041693143416138
:103140002B48016831430160416931434161C168E5
:103150003143C160FEF7CEF9FFF73CFFFFF78EF871
:10316000029806905348016831430160A448006802
:103170002049FEF7D2F8062141430691069800281F
:1031800017D00698401E06900698002811D0069881
:10319000401E0690069800280BD00698401E069008
:1031A0000698002805D00698401E0690069800282C
:1031B000E7D1FF20000610490A688243F007101883
:1031C00008600E48802101600D480168039A114390
:1031D00001600DB0F0BDC046202C0140000400404D
:1031E00014100240280400480C2000400048014010
:1031F00000100040400D030004E400E000E100E0A6
:103200000004014070B5194B1868042101430820DF
:103210008143196002249C6103210A050920C0062C
:103220000568954301221605AD1905609502856272
:103230001D681543A5431D609A618B0404689C4377
:103240009304E3180360530283628B0304689C4376
:103250009303E318036080238361090403688B43AD
:103260001104591801601102816270BD0004004808
:103270000248016801220A4302607047142C014091
:10328000401AC1174840401A7047000007480068BC
:10329000C00007494018012189038140054A12688E
:1032A0000A400E30C240D0B27047C046AC01002088
:1032B00020FFF7FF1C000140024801681020084071
:1032C0007047C0461004004810B582B047490B68EB
:1032D0000120420713604B6853608B689360CB6892
:1032E000D3600B6913614B6953618B699361CB693F
:1032F000D3610B6A13624B6A53628B6A9362CB6A27
:10330000D3620B6B13634B6B53638B6B9363CB6B0E
:10331000D3630B6C13644B6C53648B6C9364CB6CF6
:10332000D3640B6D13654B6D53658B6D9365CB6DDE
:10333000D3650B6E13664B6E53668B6E9366CB6EC6
:10334000D3660B6F13674B6F53678B6F9367C96FB0
:10335000D16727490B68274A13604B6853608B6815
:103360009360CB68D3600B6913614B6953618B69C0
:103370009361CB69D3610B6A13624B6A53628B6AA8
:103380009362CB6AD3620B6B13634B6B53638B6B90
:103390009363C96BD16318490A6802430A600968DC
:1033A000014001910198154801680324A14301607F
:1033B0000168214301607D20C10011480068FDF7CC
:1033C000ACFF401E010E00D0FEE78E490D4A506052
:1033D0000D4803680B40A107591801600020906058
:1033E0000720106062B602B010BDC0460010000891
:1033F00080100008800000201810024000000140EA
:10340000A801002010E000E020ED00E0F0B593B04E
:10341000FEF734FE774F78680126019630437860D6
:10342000786830400C900C983007B9680143B96057
:10343000B96801400C910C986F48016810220792FE
:1034400011430160750438682843386038682840A3
:103450000C900C98B10408913868084338603868BB
:1034600008400C900C980920C1060391F003886273
:10347000386830433860386830400C900C98FF2032
:103480000B9000045D4A11688143B0050818106074
:10349000B0025B49086010685A4B1840B407001925
:1034A0001060F00209900860FEF77EFCB8683043B7
:1034B000B860B86830400C900C98172002900694C1
:1034C000A0625148E06200200A90119010900F9085
:1034D0000E90386804952843386038682840129068
:1034E00003260D96022005900C9012980CAD039CBB
:1034F00020462946FEF754F90A9810900D96202090
:103500000C9020462946FEF74BF93C4948680B9A37
:10351000904348600D467D20400101466031384BA4
:103520001960019C2102BA680A43BA60BA680A406D
:103530000C920C993549029A8A62C862A868314A8D
:103540001040A860E00418600A68802002430A6006
:10355000B968079D2943B960B96829400C910C9955
:103560000B990902254B9A688A43B1035118996057
:103570001E462349049A0A6025492F220A603223F5
:103580004B607968089B19437960796819400C9100
:103590000C9920498A621C4ACA620A6882430A60FE
:1035A000B86805990843B860B86808400C900C9852
:1035B00038681843386038681840129011940A9C93
:1035C00010940F940E940D910C95129812480CA91A
:1035D000FEF7E6F830680B4908400699401830605D
:1035E0000998074908600D4804603F21416013B005
:1035F000F0BDC046141002400020024008E400E084
:1036000000E100E0FFFFFF00FFFF0000002000409E
:1036100028100040004801400004004828040040F1
:10362000F0B581B0344DA86934497E2824D30B46C7
:10363000096833487C290AD85421415AC9084A29C3
:1036400005D8296A89087D2901D201B0F0BD56212B
:103650002C4A515A49081A688A42F6D32521425CFD
:10366000521C4254D0B26528194605D301F05CFAC9
:103670000020286201B0F0BD08686027204CE053AC
:10368000204E707EF17E00290BD0002814D000253A
:10369000FFF7FCFD0028D8D16D1C707E8542F7D362
:1036A0000AE0002808D00025FFF7F0FD0028CCD064
:1036B0006D1C707E8542F7D301F036FAEFF310806F
:1036C00072B6E15B0D4B1A6800208A42024601D9AE
:1036D0001A68521A1A605621625AB37DDA40625251
:1036E000094988610A6248600868012202430A6049
:1036F00062B601B0F0BDC046AC0500202400004019
:1037000030050020C00000200C200040F0B583B040
:1037100001273C02E74DE8492846224601F024FCF7
:10372000687804280BD8BFF34F8FF148F149016046
:10373000BFF34F8F00BF00BF00BF00BFFAE7687C38
:10374000401E41424141DD4EB172A87C401E4142C3
:103750004141F172E87C012800D1B7730297E87DFE
:103760001F2800D31020D64FF871287D401E4142FB
:103770004141B970687D401E41424141F970A87DC8
:10378000401E414241413971287E01460839CD4BE6
:10379000CE4A582929D8CE4E18280AD32146F331CB
:1037A000009118216022334601F09AF9462178529F
:1037B000287E01460C390B2908D800960C211822C6
:1037C000C44B01F08DF946217852287EBB4EFC2176
:1037D000014008290FD1BC49009107211022BE4B9E
:1037E00001F07EF94621785207E01846F93044216D
:1037F0007852B74807E04620385AB44A50217852E8
:103800004821785280B210600194687E01463239B6
:10381000C9B2642901D83138F874E87E3872A87EBC
:10382000282460431430B884287F401E414241411F
:103830003173687F401E4142414171730226304618
:1038400002F038FC687800282DD0A87F0B2800D91A
:10385000052002F02FFC2320285CB8732220285C6E
:103860009E49401838862020285C40009C4940181A
:10387000B8852120285C400092494018F885E87FEF
:10388000401E414241418D48C1732420285C0228DA
:103890000CD0012813D1894E0298B0742520285CE1
:1038A000FA3078860EE0BD8C019CD8E0834886749F
:1038B00006462520285C64214143798402E00020EB
:1038C0007E4EB074002030742621695C491E4A4245
:1038D0004A41F274295D4A1F142A00D879732921BC
:1038E000695C4A1E092A00D8B9722A21695C4A1EFD
:1038F000D2B2082A0AD8F9720922D2434A433D3A81
:103900003A73D1B2714B9A690A439A612B22A95C2E
:103910000B46463B462B00D8B9712C23E95C4C1E64
:10392000622C03D8029CB4754900F9842D21695C8E
:103930004C1E092C00D879722E216C5C092C09D8F8
:10394000042C0CD87C4424796400A744029FA4A8CA
:10395000AC005A4EF054B054624A029B13703522A8
:10396000AA5C521E5342534173543621695C0129AB
:1039700021D13721695C142251432F315A23F1524E
:103980003821695C51432F315C22B1520299717028
:103990003B21695C554A3C23EB5C3D242C5D121DA8
:1039A0001AC23921695C64224A433A21695CC823FE
:1039B0004B43BB65FA653F21695C14224A434021B1
:1039C0007A524E23FC5A3E7BA419FC523E23EB5CF8
:1039D0003A4CE386FB7CD3187B879219374EFB8FDA
:1039E000D218FA87695C552901D1029931704121B9
:1039F000695CB1704221695CF1714321695C397085
:103A00004421695C31724521695C5529019C04D0CF
:103A1000AB2905D13146283100E0311D029A0A70E8
:103A20004621695CF170BD8CA9084A2900D8387418
:103A3000397A2020FDF771FC064611212846FDF752
:103A40006CFC3146FDF769FC4C2178526421284614
:103A5000FDF763FC3146FDF760FC4A2178522046B1
:103A6000F43000902C341848C21C7D20C300284636
:103A7000214601F035F83887B87800280F4901D081
:103A800003B0F0BD0020C87203B0F0BD0B4E029B26
:103A9000B354144A62E7094E029AF2545FE70522D2
:103AA000064E72715BE7054E029BB3540D4A1070CF
:103AB0000D4A53E75D070020007C00083005002018
:103AC000C0000020D6060000B50B00002C2C0140E1
:103AD000CF0700009E0F00006D1700005E0500007C
:103AE000EE0200009104002090040020300100202C
:103AF0000CED00E00400FA0500B595B0FFF7E4FB1B
:103B0000FFF784FCFFF786FAFFF700FEE34C20790D
:103B100001225040E1780323019359400143089268
:103B200010020290002931D0012020710320E070A2
:103B3000601DDBA10C22FDF7D9FADD4841786170E8
:103B4000C179E175DB498A7A521E5342534163744D
:103B5000CA7A521E53425341A374897B491E4A427A
:103B60004A41E2748178491E4A424A412275C1782D
:103B7000491E4A424A4162750079401E4142414114
:103B8000A175CD4A2046029901F05AFCC94EB07B7E
:103B9000002802D0C648818F41874620C44C0D9032
:103BA000255A44201190255250200C9025524E2722
:103BB000E05B68437D21149109011091FDF7ADFB95
:103BC0000597E053B07A401E411E88412077E08F70
:103BD00068431099FDF7A1FB217B4018E087A0788E
:103BE000002801D10020B0731498C200F07C002896
:103BF000AF4C13D0059822524020215A3231215225
:103C00004220215A323121520020B0730121F17239
:103C1000217420716080608F3230608714927079D7
:103C2000401FA64FA64D01280AD8FEF7F9FF01F064
:103C3000C3F92A200121315401F006F92F600CE06C
:103C400002F0A6FA0020059970522F6001F0CAF91F
:103C50007078002801D001207075307899490028CB
:103C600008D0562021520020B07300F05DFF01F013
:103C700001F801E001F0E8F893480168934A0A402E
:103C80000260934DAA600068010F02D11921C94357
:103C900000E000213122B154000CE86002F0ECF9A0
:103CA000FEF76CF8FF20069068300E90B07900287F
:103CB00012D0707A022808D0012803D1FEF70AFD3D
:103CC0000020707201F04AFE04E0A88C00F02CFE87
:103CD000002070720020B07179480760E88DA98DCE
:103CE0000818298E4018698E4018A98E4018E98E50
:103CF0004018001D40086862E0780028149D0BD031
:103D00005620205A0D99615A00914B086021C82213
:103D100000F0E6FE119960522820305C002808D09F
:103D2000708EA84205D22920305C002801D000F016
:103D300051FD5820305A674988420AD32721715CC7
:103D4000002901D000F04EFD6349884201D900F0FE
:103D50006EFD40201290305A604988423ED3422086
:103D6000365E3046FDF7B5FA5D49FDF73CFA01468F
:103D7000574F3869FDF7DEF938615A480078032853
:103D80000BD0022819D001284A4E24D13020315CB2
:103D90000E9899300843022119E06C20454E305AA4
:103DA00051494143090C401A400840180009C1B26A
:103DB000284618300843012109E0B0B2C0B22921D9
:103DC0004143C80A019A510240181146394E454AEA
:103DD0001170464908800020129970523C4F3D6A8C
:103DE0003078002800D149E1786A03210B91FDF772
:103DF000B3FA0146B861307F00283D4F2FD00B2D1C
:103E00002DD3334DA86AFFF73BFAA969109A914266
:103E100022D24A0890421FD900202862F27D521C0B
:103E2000F2755622A25A149B9A4200D901205022C0
:103E3000B25A2F2A089A00D803E3F37A002B00D055
:103E400004E3012A02D1232000223254608F40086B
:103E5000119AB0520120E075A962002030775620F7
:103E60001390225A20200F90335C224808380168B2
:103E7000214D2940002B41D0472A3FD301601D4BE3
:103E800018681D4908403946243901431960181F34
:103E9000006812990843BF213CE0C0465D0700203E
:103EA0004E657574726F6E524320463000000000FC
:103EB000C000002030050020007C0008AAAA0000F5
:103EC000003000408813000000580140FF0F000040
:103ED000AC05002011270000409C0000214E00008E
:103EE0000000B44395040020AF4700009604002072
:103EF0002400004010E400E0FFFFFF003A46243AAF
:103F000011430160F64B1868F64908401860181F05
:103F1000006806998843F44A191F0860B07F00289A
:103F200016D07079002813D11069FDF7DDF903462A
:103F30004220325A6C20315A3020305C7224345B7B
:103F40000094EA4C00F0B4FC01F0AAFB0020B0772A
:103F5000707F401C7077C0B2652800D2CAE0FDF7C0
:103F6000B5FAE348006840000321FDF7D6F911993E
:103F7000615A401C80B2884200D30846A086DC49C2
:103F80004860DC490868DC4A1040001D0860DB49D5
:103F900008884989091A7422B25A101A50220792C5
:103FA0005043FDF7D9F91E303021705476217052FC
:103FB00021201290355C6800D14A115A0A915E2185
:103FC000715A099111526C27F05B072646437820FD
:103FD000CC49085ACC494843CC49FDF79EF9617C4D
:103FE00048436421FDF799F98019C64EC008F05383
:103FF0000746681CC1B200253129294600D8014670
:1040000012983154B849C8690A9A801A099A8018D6
:10401000C8613221FDF781F94A21705284B2BA4851
:104020006043BB49FDF779F9010400D528464221D8
:104030007052AD484461B07C0028AC4C149A57D003
:10404000B8B2618C814251D9F08F401CF087242195
:10405000715CB04B5943891880B2814248DA002420
:1040600007983452FEF756F900F05EFD0598345279
:1040700023203454272034549C4C39E04820305AB3
:104080004242424114998D42089C214608D900239E
:10409000642D224609D9C8280AD200290BD00CE089
:1040A00011460023642D2246F5D81A46C828F4D3B9
:1040B0001C46002901D1224002D022210022725444
:1040C000B17B002904D09F2802D8222100227254FB
:1040D000317E0029854C00D1AEE10E99293188420C
:1040E00000D381E62220002131547DE60020F087B4
:1040F000002070772520002737542425705D002884
:104100000C9843D0305A312800D290E02721715CBE
:10411000002900D18BE0882800D909E1707C0028B3
:1041200011D07D4A106801218843106000F0FCFC2A
:104130006F490846083800240460081F04600C60BA
:10414000FEF71CF974746827F15B66201390345AEB
:1041500064200F90335A654A127F002A0E9D1297F1
:1041600000D14BE24A1E11B20029294600D4114663
:10417000621E14B2002C284600D410465B1E1AB2F0
:10418000002A2A4600D54FE21A464DE22325745DE7
:104190005548416A6148FDF7DFF86043534C72218E
:1041A000705280B25E494843C00C7A217052217C23
:1041B00000290ED00599635A4C21625A4A21615A4E
:1041C00050244A4F3C5B0094484C00F089FC482145
:1041D00060523020305CA27990420BD95021615A54
:1041E000012300934B0811460A390A3200F078FC8B
:1041F000482160522E20305C00280AD05020305ACE
:104200000F990091109A2F322F21022300F068FCA1
:10421000E0710E9F8D373448006A632813982ED8BA
:10422000215AB9422BD90C20642936D336E0012417
:104230007474307B002800D10DE10D982B4B1E5A71
:10424000987A40003018133854212E4A5052119950
:10425000595A80B248433146FDF75FF8301A294E6B
:10426000401C7025705300F04DFE705B204A1146D3
:1042700008390860111F08601060F477F4E01A48EC
:1042800080690C210091029AF4326421032300F02A
:1042900027FC1399615A642900D202206076A18C10
:1042A000B94201D2400060761E4800681E4988422B
:1042B00000D284E2705D012800D080E22220315CCF
:1042C000491C315400F030FC0121E1755020305A76
:1042D00030280A9100D3CBE0002070551348C9E084
:1042E00010E400E0FFFFFF00AC050020C00000204C
:1042F0003C2C014008240140E8FFFF7FB8F7FF1F76
:10430000F608002030050020E40C0000FF0F00003C
:10431000490500007CFCFFFF0C200040C02709007D
:10432000CDCC000024000040C9AF0000881300007D
:1043300001200A90707468200B90305A6621099110
:10434000725A64211291715A0491237F002B0397B2
:1043500000D1D8E1431E18B200280E98014600D4BF
:1043600019460791531E1AB2002A024600D41A4673
:1043700004994B1E19B20029014600D4194612981F
:104380000B9B079FF752099FF25331525422A05AB8
:10439000144609B24900E84A515E4118E7480D9AAF
:1043A000805A48431099FCF7D7FFE449497A4843BB
:1043B0000A263146FCF7D0FF80B201F069FEDF48E3
:1043C000005BDF49C95F4900DB4A515E4118DB48A9
:1043D0000D9FC05B48431099FCF7BEFFD749497A4F
:1043E00048433146FCF7B8FF80B201F057FED3488E
:1043F000005BD3490B9A895E4900CF4A515E411850
:10440000CE48C05BCD4C48431099FCF7A5FF617ABC
:1044100048433146CA4EFCF79FFF80B201F044FE8C
:104420000C99705AC82800D8B0E052202152039F3E
:10443000129837520846ACE0952800D9DAE064209B
:10444000D9E00246F37A002B00D1FAE40246012AB1
:1044500000D1F8E4FAE4BB49084608380760081FB1
:1044600007600F60FDF756FF72203752B34CA6E18C
:104470001398205A0022B44F3A62B44D2968602341
:104480000993F1520B9B434388B218188008139983
:10449000605212922A6086B2A17E3046FCF73DFF40
:1044A0004C21F64A50527108F44E081A1399705272
:1044B00080B2396A0A2912D22968F54908620F9D2B
:1044C000605D217F01290A9F16D1401C6055C1B251
:1044D000072902D3675537773846384015E02968F1
:1044E0008142EAD229688142E7D229688142E4D236
:1044F00029688142F3D3E0E7411E6155080602D1E5
:1045000006216155377738468843E076EFF310800F
:1045100072B6F07F002802D1605DFDF7A1FF62B6A0
:10452000FDF770FFF17C481E8141707B00280898E0
:1045300000D10846012805D1D1498969109A9142D4
:1045400000D9E7752D21129A72542F217254262119
:104550007254CB4F396A491C3962099AB25A635D69
:104560005B00DB195A85002808D01429139800D263
:1045700025E1205ACD49884203D320E11F2900D2EA
:104580001DE11298E075FEF73DFD18E15220205A1A
:10459000039FFEF7D9FB1298305A0028139900D0D8
:1045A0000DE123200A9A32547755B7486052E275DC
:1045B000B34DA862A861B5490860F7771420286256
:1045C000707B002803D04220205A11997052207E1F
:1045D000217F012900D0BBE0401C0F996054C1B27B
:1045E000072904D30F980A992154317708460A996C
:1045F0000840B9E00A20A074FFF7F6FB2F464D1CD7
:1046000029B20022B942114600DC2946651C2CB2B1
:104610000E9FBC42104600DC28465B1C1DB20E9F5C
:10462000BD4200DC1A46129FF153139970520F9845
:1046300032525426904B985B11B24900994A515E10
:1046400041180D9D585B1F464843109C2146FCF7BE
:1046500083FE797A48430A273946FCF77DFE80B20B
:1046600001F016FD844B985B8449139A895E4900DA
:104670008C4A515E4118585B48432146FCF76CFE5A
:104680007D49497A48433946FCF766FE80B201F01D
:1046900005FD794A905B7949129BC95E4900814BBF
:1046A000595E4118505B154648432146FCF754FEBD
:1046B000697A48433946FCF74FFE80B201F0F4FCBA
:1046C0001498BE3880B22E7A3146FCF726FE074693
:1046D00075483146694EFCF720FE03465020305A9B
:1046E00000973021782200F0FBF95224285380B241
:1046F000FEF72AFB295B2C460E98F130FCF70DFEE5
:10470000722170525BE0431C18B20E998842384601
:1047100000DC18460790531C1AB20E9882423A46A3
:1047200000DC1A460498431C19B20E98814239469F
:1047300000DC23E623E6C046BA010020C0000020CA
:10474000300500203C2C0140AC0500202400004036
:10475000411E0F982154080604D106210F982154B8
:104760000A9830770A988843E076EFF3108072B6A3
:10477000F07F002803D10F98205CFDF771FE62B630
:10478000FDF740FEF07C411E8841717B00290899AD
:1047900000D10146012905D1A8691099884201D9A3
:1047A0000A98E0752D2037542F2037546020305A56
:1047B0000F99615C490049194885FEF759FD307829
:1047C0000028F54F2E4D01D1FFF770FA00F05EFC86
:1047D000FFF76CFA2B48401C582170522720305CA0
:1047E000002824D0FDF796FD2720002131542A20EF
:1047F00031540C98315205983152264A10460838E7
:104800000160101F0160116000F038FC01200102FE
:104810002148FCF784FCBFF34F8F204820490160FA
:10482000BFF34F8F00BF00BF00BF00BFFAE7FDF727
:1048300071FD2720002131542A2031540C98315227
:1048400005983152134A104608380160101F016064
:10485000116000F013FC012001020F48FCF75FFC1F
:10486000BFF34F8F0D480E490160BFF34F8F00BF5C
:1048700000BF00BF00BFFAE7C000002030050020E5
:10488000AC050020409C00002823000024000040CC
:104890000C2000403C2C01405C0600200CED00E0A8
:1048A0000400FA05BA010020581B0000D1070000DF
:1048B000F0B583B01E4615460346194C0898029081
:1048C0002072A6712271A1702370000A0190E0711C
:1048D000300A00906071120AE270080A6070114F8D
:1048E000FB5C4340D8B2385C4840C0B2385C5040B2
:1048F000C0B2385C6840C0B2385C00994840C0B271
:10490000385C7040C0B2385C01994840C0B2385C35
:1049100002994840C0B2385C607203B0F0BDC04636
:10492000EA050020F66C0008F0B583B0654DEE880E
:10493000002E02D00020E88015E0634909780029A4
:1049400000D16248C10B09D1032293030340012126
:104950008C03A34200D08EE0062200E007222A61E9
:10496000D040560206435B480078800001905A49C7
:104970000B1840275F60310A5848405C0090840063
:104980003846A04398603509694071400F2402946D
:104990008C43310109194B4A51610099CA003A40D0
:1049A0004240DA60C80302990D404C494D5DA902AE
:1049B00001434A48005D0090029C2640474CA45D9C
:1049C00002946601064334460C433E488461C80A9B
:1049D0003840504018618A0A3A4042405A61480AB9
:1049E000384050409861AA003A404240DA61E900FC
:1049F000394051401962A2093A403F20C04301406A
:104A00005140596262093A404A409A62210939404C
:104A10005140D962029CA2003A404A401A63E10028
:104A200039405140596372083A404A409A63024003
:104A300071003E405640DE633940714019640022E7
:104A4000254C019D6251009CA2003A404A405A64A4
:104A5000E10039405140996422013A404A40DA6409
:104A600061013940514019650140E007400E48405E
:104A7000586503B0F0BD07235B0303404C03A3421A
:104A800001D105226BE70F231B0303400C03A34254
:104A900001D1042263E71F23DB020340CC02A342BF
:104AA00000D15CE73F229202024089028A4201D192
:104AB000022254E77F2149020140054A89184A42EF
:104AC0004A414CE79004002053050020FFFF0000FE
:104AD00000FEFFFF1105002060080020E66C0008C2
:104AE000F0B5059E1D460B463446824217DD17463B
:104AF00093420EDCA54211D061194E10F9184A10EC
:104B000093420ED08242EFDA511C3A463346264693
:104B1000E8E739461A4623462E46E3E72C46204668
:104B2000F0BD3046F0BD00000120400502490A6892
:104B300082430A604861704700040140F0B581B0CB
:104B4000BC4DBD486860EFF3108072B6BD48007878
:104B5000E860286168617924B84EB94F3760A41EB7
:104B600014212046FCF7D9FBC0B2FDF779FC6008A0
:104B70000A3028600A20FEF7F7F8022CEED8FDF77D
:104B8000C9FB00202860D0490880D04800886860B0
:104B900062B601B0F0BDC046AAAA0000F0B581B06F
:104BA0000320FDF75DFC00263225009603E0761C0D
:104BB000AD1CAE2D47D2A248A0490860C24800995A
:104BC0000180284840198778FF2FF0D0C07800284E
:104BD0002CD00A21B94A1160F72141437D204001C0
:104BE00009182148FCF799FB044620482146FCF7A8
:104BF00094FBB2494860B34909784843B049FCF78F
:104C00008CFBAE49C86008614861F0B2FE214143A7
:104C1000CE1917482146FCF780FB70436421FCF74E
:104C20007CFB80B2FEF7A0F80026C1E70024A34871
:104C3000C46004614461F0B2FE214143C819FEF72B
:104C400093F82646B4E7FDF765FB00209B4A106009
:104C50009E49098851609C490880794877490860D5
:104C600001B0F0BD5D07002080969800003E49002D
:104C7000A0860100B0B5EFF3108072B68F4D90485A
:104C8000686090480078E860286168610120FDF75D
:104C9000E7FB282028604B2084002046FEF764F8BC
:104CA0000220FDF7DDFB1E2028602046FEF75CF8A1
:104CB0000320FDF7D5FB192028602046FEF754F8A5
:104CC0000420FDF7CDFB142028602046FEF74CF8A9
:104CD000FDF720FB002028607B4908807B48008886
:104CE000686062B6B0BDC046B0B5744D74486860C7
:104CF0002820286073480078E860286168610220F5
:104D0000FDF7AEFB96242046FEF72EF84B484C49A3
:104D10000160502028602046FEF726F8FDF7FAFAD9
:104D20000020286068490880684800886860B0BD35
:104D3000B0B5624D624868603220286061480078F2
:104D4000E860286168610220FDF78AFB962420460E
:104D5000FEF70AF839483A4901601E2028602046CB
:104D6000FEF702F8FDF7D6FA0020286056490880C1
:104D7000564800886860B0BDB0B5EFF3108072B6D9
:104D80004E4D4F4868602D482D49016050202860E5
:104D90004C480078E860286168610320FDF760FBFB
:104DA00064242046FDF7E0FF462028602046FDF7FA
:104DB000DBFF282028602046FDF7D6FFFDF7AAFA82
:104DC000002028604049088040480088686062B63A
:104DD000B0BDC046F0B581B0384D39486860EFF3DA
:104DE000108072B6154E164F37603C20286035484B
:104DF0000078E860286168610120FDF731FB4B24F1
:104E00002046FDF7B1FF502028602046FDF7ACFF9B
:104E10005A20286037602046FDF7A6FFFDF77AFA92
:104E2000002028602849088028480088686062B609
:104E300001B0F0BD282C0140CF0700000030004039
:104E4000AAAA0000F4050020B0B5EFF3108072B6F6
:104E500019480078194DFF2802D0FFF79FFE25E082
:104E60001748686017480078E86028616861032087
:104E7000FDF7F6FA37202860C8242046FDF774FFB6
:104E80000520FDF7EDFA282028602046FDF76CFF8D
:104E90000620FDF7E5FA192028602046FDF764FF9B
:104EA000FDF738FA0848002101802960074800888A
:104EB000686062B6B0BDC046807C0008282C014006
:104EC000CF070000F405002088050020060100201F
:104ED00010B50A4C607A022808D0012803D1FDF7EA
:104EE000F9FB0020607200F039FD10BD0448808C91
:104EF000FFF71AFD0020607210BDC046300500208B
:104F0000AC050020B0B503210A050920C0060368DE
:104F10009343012214051B190360930283628B04DF
:104F200004689C439304E3180360530283620B04F8
:104F300004689C431304E318036013028362094B63
:104F40001C68082525430424A5431D601C68022510
:104F5000254395431D60890303688B43D10359188A
:104F60000160B0BD00040048F0B5012A23DB032432
:104F700013462340042A01D200240EE0A243002459
:104F80000D5D055505190E1977786F70B778AF70FC
:104F9000F678EE70241DA242F2D1002B0BD0625C99
:104FA0000255012B07D0621C555C8554022B02D0A0
:104FB000A21C515C8154F0BD07484168074A0A4071
:104FC0004032426006490A68402313430B6001687F
:104FD00001220A4302607047300002400000FFFFD8
:104FE00008380140B0B51B48016802221143016036
:104FF000016891430160184801460839174A0A6060
:105000000A2101601649097881601649C16002468B
:105010000C3A136801210B43136000224260124BCB
:10502000124CDC60044614349C60114C24785C60A3
:10503000104C1C604B020446143C25681D4325603F
:1050400003680B4303600C4B1A70203802680A4354
:105050000260B0BD1010024020040040016000005A
:10506000B0010020FFFF0000440002405C06002069
:10507000200100208B0900001005002002480021BB
:10508000416001607047C04624040040F0B587B01D
:105090004622E74B985ACB494143090D401A0690E6
:1050A00085B2E54F3879002805923ED02724395D36
:1050B000F87A0029049426D0002824D068080390A8
:1050C0004820385A0095C04E2F3E002739463246B8
:1050D0003B46FFF705FD0446D748408E009539460C
:1050E00032463B46D44FFFF7FBFC0646039800F0E0
:1050F000D5FFA0B2049C00F0CBFFB0B200F0D4FF0B
:10510000CB4B395DF87A421E90414A424A410243F4
:1051100000D055E11C7FFDF7FDF80A20FDF714FED5
:10512000002C18D001F028FC17E039464827C85B4E
:10513000897E002900D0C2E0312800D2BFE01C7F68
:10514000FDF7E8F80A20FDF7FFFD002C00D1B0E0E4
:1051500001F012FCAFE001F04FFC48200290385AF9
:1051600000952E463025984A002429462346FFF70D
:10517000B7FC0390788E00962946934A0194234603
:10518000FFF7AEFC394607460C46485D3546A84A4F
:1051900091798842069B0BD9059BD25A0123009333
:1051A00053080A461432FFF79BFCA14A034685B216
:1051B00002981352B8B2A84219464FD9039EB0B212
:1051C000A84250D92746A07D002851D00C4606930E
:1051D0004220385E6321C943D28C4A4310187B4970
:1051E00088620A6C831A0D6B4A6B8E6B5A43CA63D2
:1051F00008644543AB198D6CAB4200DB2B466D4216
:10520000AB4200DC2B468B63D218CB6A5843101894
:10521000CA6C904200DB10465242904200DC1046BD
:105220004864FCF756F86A49FBF7DDFFFCF75CF8C9
:105230007F4BD98E091A0AB24020185A824200DBED
:105240000846D88602B2A1B29142014600DC21464E
:10525000069CA3B293420CDC20460AE03946039E2A
:10526000B0B2A842AED833462746A07D0028ADD1C3
:1052700018468CB2621E21469141020400D00121E1
:1052800001290ED10499795C00290AD080B200F07E
:10529000FFFE002000F002FF204600F005FF07B0EF
:1052A000F0BD4C480199016041608160B97607B05A
:1052B000F0BD01F0A1FB01205F498876C85B009535
:1052C0003024414A002321460493FFF709FC584A41
:1052D00006465948005D91798842069B08D8D35309
:1052E000B0B2A84214D9544FB87D002815D154E06B
:1052F000059BD25A0123009353080A461432FFF744
:10530000EFFB4B4A034685B2D353B0B2A842EAD86A
:105310003346494FB87D00283FD006934220385E7F
:105320006321C943D28C4A431018284988620A6C09
:10533000831A0C6B4A6B8E6B5A43CA6308644443EE
:10534000A3198C6CA34200DB23466442A34200DC19
:1053500023468B63D218CB6A58431018CA6C90420C
:1053600000DB10465242904200DC10464864FBF7D6
:10537000B0FF1749FBF737FFFBF7B6FF2C4BD98E71
:10538000091A0AB24020185A824200DB0846D88621
:1053900001B2069B9AB28A4200DC184601040D490C
:1053A00009D02722BA5C002A05D080B20860486084
:1053B000886007B0F0BD0498086048608860B876DF
:1053C00007B0F0BDCDCC0000FF0700003001002089
:1053D00000401C46342C014010B515494A78154848
:1053E0004270CA79C275144A937A5B1E5C425C4172
:1053F0004474D37A5B1E5C425C418474927B521E7F
:1054000053425341C3748A78521E53425341037529
:10541000CA78521E5342534143750979491E4A4284
:105420004A41827501210902044A00F009F810BDC1
:10543000C00000205D07002030050020007C00082F
:10544000F0B503AF8BB06E46F41D1934154671618B
:10545000B061C80F0B1801221946F2609143C91DB3
:10546000072291436A46501A59108546F06131610E
:10547000FBF755FE7069022859DBB26903203369D6
:1054800019460140B160591E03297460356001D28C
:10549000002121E08343736100231946D25CB06987
:1054A000C01844782402A218F569EA528278C478B8
:1054B0002402A218EC186280027945792D02AA18FC
:1054C000A2808279C07900028018E080B269083336
:1054D000091D70698842E1D1B368002B7468356892
:1054E00025D04900B069405CB26952185278120266
:1054F0001018F26971615052012B18D07069801C2C
:10550000B1690A5CB1690B185B781B029A18F369E0
:105510001A52B169B068022809D00A467069001DA4
:10552000095C1218527812025118F269115230694E
:10553000A06035480168C90708D00168C90705D0CF
:105540000168C90702D00168C907F3D1416809069B
:1055500006D52E490A680346083B1A604968196057
:10556000A905F3681DD1426802210A4342608560A3
:1055700042684023134343600268D20708D00268A0
:10558000D20705D00268D20702D00268D207F3D151
:105590000268920601D52022026042688A43426076
:1055A000F3680021616007E04168994341606168E8
:1055B000891C61602168491C21602168A2689142B0
:1055C0001AD241681943416021684900F269515A71
:1055D000626851530168C90708D00168C90705D03E
:1055E0000168C90702D00168C907F3D101688906BB
:1055F000DAD520210160D7E7416880220A43426062
:10560000FE1F053EB546F0BD0C20024028010020DB
:10561000B0B51C4801680222114301600168914342
:10562000016019480146083960220A6003210160BF
:105630001649097881603D21C16002460C3A136821
:1056400001210B431360124B124ADA6002461432F6
:105650009A60114A547817345C60104C1C604B02FD
:105660000446143C25681D43256003680B43036012
:10567000CB03446A1C4344621170203802680A4319
:105680000260B0BD10100240200400401A05002046
:105690004400024060080020100500209B09000023
:1056A000B0B50E48036808210B43042293430360FE
:1056B0000B4B5C680B4D25400B4C24782C195C601F
:1056C00084688025254385601C68012525431D606D
:1056D000036813438B430360B0BDC04600380140EC
:1056E0001C0002400000FFFFB8010020F0B581B0AF
:1056F0008C484178012904D1407E002800D0D0E0B8
:10570000ADE08A1ED4B2651C03232A461A40032C3E
:1057100002D2831C002412E09D43831C0024824E8D
:105720001F786740F45D5F786740F45D9F7867405D
:10573000F45DDF786740F45D1B1D2D1FF0D1002A5A
:105740000DD01E786640784DAC5D012A07D05E789A
:105750006640AC5D022A02D09A786240AC5C427E20
:10576000944200D09DE0182979D1C178047962076C
:10577000520D52186D498A80072212021346E033F7
:1057800045796E011E40E4083419CC80AC09857956
:10579000AD002C19C579EE07760D34190C8114462D
:1057A0008034067AF70127406D087D194D81154632
:1057B000F035477A014638012840360980195B4E9A
:1057C000B081F8098E7A76003018CE7AB7077F0D4F
:1057D0003818564FF881C032087B87011740B60849
:1057E000BE19524F3E8240094E7BF6003018788237
:1057F000887BCE7B77077F0D38184C4FB882087CAA
:1058000047011F40F308FB18484FFB8280094B7C7F
:105810009B0018188B7CDE07760D30183883C87C07
:10582000C60126405B08F3187B830B7D1C012C40CE
:1058300000092018B883D8094B7D5B0018188B7DB0
:105840009C07640D2018F883C87D44090D7EED0087
:105850002C197C84800110409A08801838843448C0
:1058600000784000314C2018808832490978324F46
:1058700000291CD03C46BE340094AE26002531469B
:105880003A462B46FFF72CF92C4908802C48007823
:105890004000264908188088009431463A462B4635
:1058A0001EE022480168491C016001B0F0BDAF282C
:1058B00001D2002007E03946ED310091AE213023BE
:1058C0003A46FFF70DF91D4908801D480078400051
:1058D000201880883946ED310091AE2130233A46B8
:1058E000FFF7FEF817490880174801210170174992
:1058F0000020088016490A781649002A024606D078
:10590000154B1B88002B08D0088001B0F0BD0A8819
:10591000521C114B1B88002BF6D11046088001B099
:10592000F0BDC046F5050020E66B0008EC04002041
:10593000320500203B0500201207000082050020F0
:105940003305002062050020360500208805002070
:10595000570500207E05002078050020F0B587B0AF
:10596000F94EF07A002806D02B24305D002807D0AD
:105970005220305A38E15220305A48217052B7E153
:1059800052200690305A7D22D700F049897B4B0087
:10599000D919F57C002D18D0814205976DD2EB4ABC
:1059A000127FB57AAA4256D148250027049777532B
:1059B0000125F577377D002F00D18DE0049BF3772B
:1059C000AA1AE24B1A77059F48E00D46012185424D
:1059D000039131D20295DD4B1D7FB37A01959D4233
:1059E00077D1059704942420305C431E98415423BA
:1059F000F35AC82B0B4600D303465624D34D2C5BD9
:105A00002D8FAC42029900D80346012B069D00D091
:105A100086E0CF48002404620120CC4FF87501993C
:105A2000401A3877FFF780F8B476705BB97B49008D
:105A3000059FC919049C77E0069DFA1A824200D995
:105A400082E0039DD919814200D2BFE00021824249
:105A500000D8BEE0BEE0F27F002A0ED100223275EF
:105A6000BC4A00922F3A2F23FFF73AF84821705290
:105A70000698305AB549897B4B00FA1A824231D9CF
:105A80000494B17A01277D1AB04C247FA5420BD132
:105A9000482400253553F777347D002C21D0F57745
:105AA000AA4B1977049C03E0F17F0029049C19D1CB
:105AB000002131752F230093A64BFFF711F84821E1
:105AC00070520698305AA149897B4B000599CA1A31
:105AD00008E0069D029927E0059FFA1A8242CFD876
:105AE00000E0049C0121002782420A4606D9059D58
:105AF0005B19834207D20A4308D071E03A46059DFC
:105B00005B198342F7D339460A4369D14822002101
:105B1000B152F27F002A63D001223275F1775FE043
:105B2000D0007053049C059F8A4A00922F3A2F237D
:105B3000FEF7D6FF48217052705B8449897B4B0089
:105B4000FA1A824200D87CE70494B17A01230291C8
:105B5000591A7E4C247FA14225D12420305C411E5D
:105B600088415421715AC829039900D3014656240B
:105B7000764D2C5B2D8FAC4200D801460129069D45
:105B80000FD1724902980877CB75714800240462DE
:105B9000FEF7CAFFB476705B6C49897B49007A1ABC
:105BA00001E077533846049C2F2100910021694B76
:105BB000FEF796FF48217052705B6449897B4B0069
:105BC000FA1A039DD919814200D33FE7012182428D
:105BD00000D80D46002D03D1482100227252B27622
:105BE000315D002900D183E07D21CC0021462F3199
:105BF000884236D9554D297FB27A91422AD1242044
:105C0000305C421E90415622AA5A2E8F0123002753
:105C1000B2421A4600D83A4654264B4DAE5BC82EC7
:105C200000D33B461A400243012A484D0ED1484852
:105C3000002606620120E875401A2877FEF774FFF7
:105C40004148867606465220305A03E05221002011
:105C50003D4E7052297D4200511A934A89184822BC
:105C6000B1520146303989B2A1423BD2B17A012208
:105C7000531AF74C257FAB422ED124203746305C97
:105C8000431E98415623E35A268F0025B3421346FC
:105C900014D95426BE5BC82E15D213400343012BE2
:105CA00016D121770120E075EB4800250562FEF74B
:105CB0003BFF3E46BD765220385A0DE02B46542617
:105CC000BE5BC82EE9D32A4613400343012BE8D01C
:105CD000522100203E467852217D4200511A31392E
:105CE0004822B1522F2803D8482000213152B176E2
:105CF0003078002801D007B0F0BD2224305DD44FA9
:105D0000B97C884214D93879002811D0FCF702FBFD
:105D1000FEF70AFF66203055502000213152012045
:105D20000002D249086108200860202008606FE066
:105D3000B07B002810D04824305B1D282FD850217C
:105D40000022725255E0C04630050020C0000020FD
:105D5000AC050020FF070000707D002854D070784B
:105D6000002820D04824305BB96DFB6D00912F21B5
:105D7000B84AFEF7B5FE0146B848FBF7EDFA397AA6
:105D80004908FBF7E9FAB087305B2E280BD8502082
:105D900000213152B4480160F848016038E01E2803
:105DA00019D11E2025E0F5480468AD4D204629464E
:105DB000FBF765FA0028204600D12846FBF794FA45
:105DC00050257053A7492046FBF767FA00281FD1DA
:105DD000302070531CE0797B14224A43824208D958
:105DE000A02100911E212F23FEF77AFE5021705230
:105DF000305B7A7B14215143814209D8954A009245
:105E0000A023FEF76DFE01E04820305A5021705269
:105E10002424305D002800D06DE75025705BB17BF5
:105E20002A464A432F3282422CD82720305C002851
:105E300028D02327F05D00280ED1FCF76BFACE495D
:105E4000C87D002802D100F03FF9CB490120F05570
:105E5000488F44217052B17B4020C74A135A705B6F
:105E60004627D25B0092002901D0892100E02F2132
:105E7000784AFEF735FEF053F07C0028BE4F01D182
:105E80000020F077705BB17B69432F3181425ED98E
:105E9000F07E052815D8C046784400794000874434
:105EA0001205080B0E05C046FFF7FFFFFEF740FF87
:105EB00007E0FEF719FF04E0FEF740FE01E0FEF701
:105EC00089FF0020F076B878002824D02320305CA9
:105ED00000287DD02020385C3C214143788D421839
:105EE00010463C3803B2FF2168318B4201DD604827
:105EF00010186422B0520246EF3213B28B4201DD19
:105F00000246793A6823F2520246773213B28B4244
:105F100012DC104611E04624002030532321715C2E
:105F2000002979D1954908620120F875307B002855
:105F30006DD0FDF767F96FE0F13866217052B07BE4
:105F4000012801D101203055462000213152F07F37
:105F5000002800D0CFE6705B46212E2812D9755A52
:105F6000727B1423D340854A126A9A420BD27A8FED
:105F7000954201D272521546FA8F954203D9725258
:105F8000154600E0755A4821795A8D4202D94622B9
:105F9000B1520D46B17D002906D03621795E8D4281
:105FA00002DD8DB246217552302800D2A3E6734837
:105FB000446800212046FBF754F9002800D09AE6F7
:105FC0002046FBF791F928184621705207B0F0BD22
:105FD000262000213154694801620121F975307B86
:105FE000002811D0B07B002800D073E74620385A33
:105FF0000691B97A49004018133862217052FEF7B1
:1060000081FF0698F07765E7FCF784F962E7F07F97
:10601000002801D1FCF77EF9F07FF17C002997D0B0
:10602000002895D05220315A7D200694C400204685
:10603000FDF726F900190699705280B20D49884281
:1060400002D3FDF7DFF882E7FEF75CFF7FE7C0468B
:10605000C0000020FF070000AC050020008793036C
:1060600000E0FF44000040423001002018040048D6
:106070005CFEFFFFCF0700000320000203490A680F
:106080008243012000021018086070470C04004889
:10609000014908607047C046342C0140014908603E
:1060A0007047C046382C0140014908607047C0461F
:1060B0003C2C01400B2800D30B2040000149087004
:1060C0007047C046F4050020F0B581B02325294C67
:1060D000605D002803D0FCF795FF01B0F0BD2026DD
:1060E000254FB85D397F01290AD1401CB855C1B28E
:1060F000072902D30120B85520770121014009E08A
:10610000401EB855010603D10620B855012121775C
:1061100001218143F976EFF3108072B6E07F002809
:1061200002D1B85DFCF79CF962B6FCF76BF9E07C34
:10613000617B0143114805D08169114A914201D325
:106140000121F9752D21002262542F21625456211C
:106150000C4A7A52B95D0C4A0C4B1360012262550D
:106160006022A25A490008184285FCF74BFF01B093
:10617000F0BDC04630050020C0000020AC05002066
:10618000D107000010270000240000408813000001
:10619000F0B591B00120089082030292034600906E
:1061A0004448416811434160416811400A910A998D
:1061B000990402680A430260006808400A900024BB
:1061C000099407940220039005900A9840250495AD
:1061D00003260696384804A9FBF7E2FA374F3868D9
:1061E00037490140103139603003396881433960E3
:1061F00038682021884338603868A8433860386898
:106200008021014339603002396881433960B0022E
:10621000396881433960FF2000062A490A688243B1
:10622000B00710180860009DE80627490860109420
:106230000F94082001900E900D940C940B94E12083
:1062400040020A90214E3446083C0AA92046FBF73A
:106250003BFDA8023168814331600920C002311F33
:106260000A6882430A6030682A21884330602068C7
:10627000284320600299103138680840102804D162
:106280001348F8602036BE6003E01148B86020363D
:10629000FE6078680F4901400F4800780818786060
:1062A00038680399084338603868019908433860B2
:1062B00011B0F0BD14100240000400481C00024060
:1062C000EFBFFFFF18E400E000E100E00838014004
:1062D000EA0500200000FFFFB8010020F0B587B0FC
:1062E0004624F94F385B5426B8534025785B401C50
:1062F0007853388F401C3887788F401C7887B88E49
:10630000401CB88627200590385C00283ED0F87BDA
:1063100000280ED06E20395A491C3952EB4A527966
:106320001423534389B28B4203D2002139520120F6
:10633000B8772420385C3978014300D037E2232035
:106340000690E24BD87D002800D1C6E00698385C64
:10635000002800D1C1E0FEF7E7FBFCF797FFDB4B1D
:10636000D97E002941D0002841D026203A5C521C19
:106370003A54D0B25A7F904200D98CE02D20385C3C
:10638000002800D0A9E02F20385C8DE02820385C60
:10639000002812D0788ECE49884212D35220002194
:1063A00039524E201F223A524820395229200121C9
:1063B0003954C848401C6A217852787E002808D099
:1063C000A5E74E20002139526A203952787E0028F4
:1063D0009DD12A20395C002999D04821795A002979
:1063E00009D06A200021395291E700284BD02F2094
:1063F000385C401C50E06A217A5A521C7A5292B2A0
:10640000F44B9A4283D94E22BA5A1F2A51D3012003
:1064100005997854FB79F04A11461031012B0B464F
:1064200000D81346049400021860EC480378012B4E
:106430000B4600D8134608241C603B7A012B00D879
:10644000114620220A60B97C0129039600D0B4E1EC
:106450006C21795AE24A4A43D20C7A76438E5343EE
:1064600043844808B92800D2A9E10024DE4EFEF793
:1064700083FC6420FCF778FCDA480660641C787EB4
:106480008442F4D39BE126203A5C521C3A54D0B2A9
:106490005A7F904211D900202F22B8542D22BA5C85
:1064A000002A1AD100290ED0997FC0B288420ED896
:1064B00013E000227A523A5429E72D20385C002854
:1064C0000BD12F20385CD97FC0B2884205D92D204E
:1064D0000121395400F0CEFAC04B0494788F15286E
:1064E00000D2E1E003960020019078870698395C9D
:1064F000B87D0028029141D000293FD04220385E6B
:106500006321C943DA8C4A431018B84988620A6C7F
:10651000831A0C6B4A6B8E6B5A43CA6308644443FC
:10652000A3198C6CA34200DB23466442A34200DC27
:1065300023468B63D218CB6A58431018CA6C90421A
:1065400000DB10465242904200DC10464864FAF7E5
:10655000C0FEA749FAF747FEFAF7C6FE9F4BD98E51
:10656000091A0AB2585B824200DB084602B2442193
:10657000595A8A4200DC0146D9860299787B002864
:1065800044D0002942D05620185A198D401A9749F4
:1065900008658A6E831A8C6DCA6D0D6E5A434A6601
:1065A0008866444363190C6FA34200DB23466442B0
:1065B000A34200DC23460B66D2184B6D58431018DB
:1065C0004A6F904200DB10465242904200DC104677
:1065D000C866FAF77EFE8649FAF705FE0146854C45
:1065E0006068FAF7A7FD0646834D2946FAF763FE71
:1065F000002800D135466560002628463146FAF766
:106600005AFE0028754B029900D16660787D0028FB
:10661000039E49D0002947D0B88F764E716A081A78
:10662000724C2060A169421AA368E1682569514350
:106630006161A06143435A19236A9A4200DB1A46FA
:106640005B429A4200DC1A46226189186268504314
:106650000818616A884200DB08464942884200DC2B
:106660000846E061FAF735FE6149FAF7BCFD0146DC
:106670003068FAF75FFD0646604D2946FAF71BFEC3
:10668000002800D135462846019E3146FAF7F7FD2D
:10669000002800D12E4657480660006A6328039EF2
:1066A0004E4B01D800202061D87B002841D0F88EC5
:1066B000B98E814210D90020B8864420385A9528D6
:1066C0001ED8022128E0C04630050020C00000206E
:1066D000E9030000204E0000002159754420385A7B
:1066E000BA5B131A8B421CDD4018B85356203B4B43
:1066F000185AB9214900823188420AD8002217E08D
:106700003C49896901221202F432914203D90A21DB
:1067100002E001220CE028215975BA5B131A8B4262
:10672000E2DC831A00228B4201DD401AB8532B4B66
:106730009A7505983C5C002C12D00698385C0028AD
:106740000ED05020385A30280AD3BE5B44201D5A40
:10675000304668430499595AFAF7DFFD441C1CE09F
:10676000F87F00280FD06220385A44215D5A6843D0
:1067700004995C5A2146FAF7D0FD201A441C702077
:106780003C52BE5B0BE0BE5B44201D5A3046684362
:106790000499595AFAF7C1FD444370203C524420F1
:1067A0003E5217480560A1B28160C1600161582066
:1067B000395A491C395207B0F0BDFEF7DDFA2C20DA
:1067C000385C0028049C039E00D0A0E50020F874EB
:1067D0009DE5C046204E000018040048C00000207F
:1067E0008905000000300040AAAA00003001002006
:1067F00000401C46AC0500200000164300E0FF44AA
:106800002C2C014070B54E4800784E4C2178002960
:106810000BD0002809D04D480078002810D0FEF792
:10682000E1FB54480221017070BD474909780129F4
:106830000CD0002924D1FCF7BBFAFEF7D3FB70BDC6
:10684000FEF7E6FE4B480121017070BD00280CD018
:106850003E480078002814D03D480088FEF764F8D0
:10686000FBF738FFFEF7BEFB70BD3A4D28780128D4
:106870000AD03948007801280ED0207800281DD091
:1068800070BDFEF7C5FE70BDFBF724FFFEF7AAFB47
:10689000314800780128F0D1FCF70EFD002803D024
:1068A0002E480321017004E02C4802210170FCF7FE
:1068B000EBF8FEF797FB20780028E1D128490A88F9
:1068C000284C2878002816D06079072813D8062A83
:1068D00011D3431C637124480568C06F401B656970
:1068E00040196061082B06D1C309C008C51AA581EB
:1068F000C0181A4B98801D4D2888002805D1637850
:10690000002B02D1501C088070BD00260E80184953
:106910008842B5D36189FCF7B3FC322801DC2078CA
:10692000461C2670F0B2332807D3E078002804D143
:10693000FEF704F90120000220802888608170BDE4
:1069400050050020570500205A05002010050020A2
:10695000D00500205B0500205C0500202001002000
:106960007E050020140500205C060020780500202C
:10697000DD0500003905002070B53D490A783B4C23
:1069800020680C239843002A03D00822104320607B
:1069900004E00422104320600220A06203221305B9
:1069A0000920C00605689D4301235E05AD190560F9
:1069B00025681D430226B5432560A361940405683C
:1069C000A5439C042C1904605C0284620C78950336
:1069D0000168A943002C03D0DC032143016004E0DB
:1069E0009C032143016080218162110402688A4373
:1069F00059045118016070BD70B51C4B1868042112
:106A0000014308208143196002249C6103210A0587
:106A10000920C0060568954301221605AD190560D9
:106A200095028562124D2E781D688D43002E02D08E
:106A300025431D6002E015431D609A628B040468C3
:106A40009C43D304E31803608B0304689C439303C3
:106A5000E318036080238361090403688B431104F6
:106A6000591801601102816270BDC04600040048DF
:106A7000C2000020F0B583B0474D28686021474E22
:106A8000019170525627464BD95B03224A4380B28C
:106A900010188008D85300210291296084B2997E91
:106AA0002046FAF73AFC4C2170526108081A009708
:106AB000F05380B23B49096A0A2914D229683A493D
:106AC00008602024364D285D297F0129029F17D1B7
:106AD000401C2855C1B2072902D301202855307720
