:020000040800F2
:10100000C80C0020D11000086126000869180008EB
:1010100000000000000000000000000000000000D0
:101020000000000000000000000000005D27000834
:101030000000000000000000632600085F27000891
:10104000E3100008E3100008E3100008E3100008B4
:10105000E3100008E3100008E3100008551800082A
:10106000E310000835170008E5170008C11600084E
:10107000B5140008E3100008E3100008E3100008AE
:10108000B5280008DD280008E310000879280008CA
:10109000E31000088D280008E3100008E3100008A2
:1010A000E3100008E3100008E3100008F928000826
:1010B000E3100008E3100008E31000080348854629
:1010C00000F0B4F9004800477D420008C80C002039
:1010D0000448804704480047FEE7FEE7FEE7FEE7D6
:1010E000FEE7FEE769280008BD10000803460B4331
:1010F0009B0703D009E008C9121F08C0042AFAD2CE
:1011000003E00B780370401C491C521EF9D2704753
:10111000D2B201E00270401C491EFBD2704700228F
:10112000F6E710B513460A4604461946FFF7F0FFE6
:10113000204610BDF8B502464A40D40F42004B008D
:1011400052085B089A4202D20246084611464A00FB
:1011500023D0C30D4A00DDB2120EAD1A202D35DAB0
:1011600049020126490AF6058A19002C00D052428C
:1011700020214F1B1146B9402A411018C20D9A4236
:1011800021D0002C17D0012D08DCDA05801AD20FEF
:101190008019D207DBB200F00FF9F8BDDA05801A2A
:1011A000012340001B06C01880185A428018CA0F3D
:1011B0001043490007E04908C2071143DA05801AC5
:1011C00080194008801800F0EFF8F8BD6100012296
:1011D000511A001BF7E70122D2075140AAE701226A
:1011E000D2075040A6E770B502464A40D50F4000EE
:1011F0004A00ED0740085208002814D0002A12D0F7
:10120000C40DD30D41020120C0055202490A520A01
:10121000E41A091812187D34914201D3641C00E0CD
:101220004900002C01DA002070BD0023914201D357
:10123000891A0343400849000028F7D100290AD041
:10124000914202D10121C90705E0914201D2012159
:1012500001E00121C943E005C018401900F0A4F8DD
:1012600070BD0122D207002800DB101A002900DB24
:10127000511A814201D80120704700207047012295
:10128000D207002800DB101A002900DB511A814226
:1012900001D201207047002070470122D2070028A8
:1012A00000DB101A002900DB511A814201D3012012
:1012B0007047002070470122D207002800DB101A77
:1012C000002900DB511A814201D90120704700201A
:1012D0007047C217C10F504010B54018CA07962377
:1012E000002100F069F810BDC20F41004002012347
:1012F000400ADB05D207090EC0187F2901DA002059
:101300007047962903DC9623591AC84001E09639A4
:101310008840002AF4D04042704770B50446002946
:1013200003D000202022012310E0002801D000205B
:10133000C043C046C0460DE02546D5408D4205D38A
:101340000D469540641B1D46954040191546521E9A
:10135000002DF1DC214670BD70B5002504462E46F7
:10136000002911D0002C01DA01254442002901DABC
:10137000012649422046FFF7D0FFB54200D0404247
:10138000002D00D0494270BD002C02DA0121C907AE
:1013900002E0002C00DD03490846C046C046214655
:1013A00070BD0000FFFFFF7F002904DA401C4900E8
:1013B00001D140084000704770B40024050C05D1ED
:1013C0001024000402D1002921D01124050E01D1DE
:1013D00000020834050F01D10001241D850F01D141
:1013E0008000A41C002801DB4000641C002908D0F8
:1013F00020252E1B0D46F540A14000D00121294398
:10140000084301061B1B000ADB1D02D5002070BC2F
:101410007047DB05181880180029F8DA401C4900CD
:10142000F5D170BC40084000704700001CB5094869
:1014300000900948019005460126009C05E0E368FC
:1014400007CC33430C3C98471034AC42F7D3FFF73A
:1014500039FE0000387900085879000870B58C18FA
:101460000578401C6B075B0F01D10378401C2A11E3
:1014700006D10278401C03E006780E70401C491C1F
:101480005B1EF9D12B0705D40023521E0DD40B701F
:10149000491CFAE70378401CCB1A921C03E01D7824
:1014A0000D70491C5B1C521EF9D5A142D8D30020F7
:1014B00070BD000080B501229104EA4843685B03D7
:1014C0000BD403680B4206D151044268920304D442
:1014D00002680A4204D0016000E0416002F060FC52
:1014E00080BDC04605488188054A11804188054A6B
:1014F00011800088044908807047C04650050020CC
:10150000180500201C05002002050020F0B597B04A
:1015100000260D960C960B960A96099601231A053D
:1015200006925E48C1681143C160C16811401191C3
:1015300011990168019319430160006818401190E6
:1015400003270897119840200590079005200490E4
:10155000040707AD2046294600F0E8F90B960897E6
:10156000102007902046294600F0E0F94C48016819
:10157000049A1143FA22914301604A4801684A4A99
:10158000114001603B460397390302688A43019F7B
:10159000790351180160016820220A430260016842
:1015A000059A91430160016880220A430260190292
:1015B00002688A437902511801609A020592016813
:1015C0009143BA028918016038480168384A0A40D4
:1015D00038495118016016961597149613960F20E6
:1015E0000490000312901196334C20461438029058
:1015F00011A900F055F9201F0168B94301601121BC
:10160000490602688A437906511801607905224625
:10161000083A13680B4313600168284A0A40F9042A
:10162000511801602068042528430399C9430140EB
:101630002160206870210143216020461038016834
:10164000A9430160016808229143016010960F963A
:101650000E960DA9029800F009F9606928430B2144
:10166000884360613803216881432160606960219B
:1016700001439020814361610B491031206808408B
:101680002060049800026169814305980818606130
:10169000206806990843206017B0F0BD341002405E
:1016A000040802401C000240EFBFFFFF0827014072
:1016B000FFEF3F4E001000B014240140FFFFF73F42
:1016C000B0B5194801466C390A680A68920216D406
:1016D0000968090212D50121CA4303681340036057
:1016E000CB03124C656C9D436564236813402360F3
:1016F0000F4A00231370683809050160B0BD014628
:101700006839012213050B60D14303680B40036065
:10171000D003064A536C834353641068084010603A
:10172000034800210170B0BD6C000240004401403C
:10173000C806002010B524480078002812D021489F
:10174000007800280ED0214801680124214301605F
:101750000021416021480078002827D004F04CF88F
:10176000022026E01948011F0A6852070CD5184AC2
:101770001278002A08D0174A136802241C43082351
:101780009C431460042202600A68920705D4096829
:10179000090701D50121016010BD01680124214321
:1017A00001600021416005F0A9FD04E004F080FB28
:1017B00020460B490870E00307490A6802430A60A3
:1017C00010BDC046C4040020CB0400200400024029
:1017D000D0040020200400400818024061080020C6
:1017E000AD04002010B5184C206880060FD4206886
:1017F000000613D42068800515D42068000505D59F
:10180000012001026160216B8143216310BD102022
:101810006060FFF767FE20680006EBD580206060FF
:1018200020688005E9D5012001026160216B8143B8
:10183000216306480078052802D103F0C7FF10BDD8
:1018400003480021017010BD00000240A9040020DF
:10185000C204002080B50120C0030249086003F0E3
:1018600041FF80BD0C180240FEE700008268D207ED
:1018700012D1C268094B13404A681A438B6813435C
:10188000CA681A43C2600322920703699343096836
:10189000194301610020704701207047C73FFFFFD7
:1018A00010B58268D20713D1C2689202134A11D5CB
:1018B0004B68F02B0ED1C36813400A681A43CB68FB
:1018C0000C694969134323430B43C360F0210FE0C4
:1018D000012010BDC36813400A681A438B68134384
:1018E000CA681A430B6913434A691A43C2604968BC
:1018F000826A0A438262002010BDC0463CC2FEFFDD
:10190000F0B50268002A0DD40268074B1340F4C9F1
:1019100009681A4322432A4332433A430A43026086
:101920000020F0BD0120F0BD0F7C00FEF0B584B0BA
:101930000B68002B49D000250191009010E07F43F7
:101940007F433B460F2159438E435D433543009807
:1019500005510199039D6D1C0B681C46EC4035D068
:101960000122AA401A40F6D00395144654434B680E
:1019700026465E43032767430568BD43354305603C
:10198000FE4302935D1E2346012D05D88D685D43FD
:10199000876837402F4387600D695D43C7683740CC
:1019A0002F43C760029D022D039DD4D1170A05D095
:1019B00024244D690659002FC1D104E020244D692B
:1019C0000659002FBBD15B43BCE700234A68521E77
:1019D000012A05D8C968594342689A430A434260BC
:1019E000002004B0F0BD000080B57D21C900FFF7E4
:1019F00094FC401E03494860002088600520086070
:101A000080BDC04610E000E070B504466F4E351F43
:101A10002868382101406F4808291ED0102916D1A6
:101A2000316803220A40032A00D06948316849041A
:101A30004A0E424330684006400F411C1046FFF7F3
:101A40006CFC3168490F491CFFF767FC05E00C3E50
:101A500030688004410F5E48C840206029688909C9
:101A60003C220A405D4989581F221140C8406060ED
:101A70002968890A1C230B405749C9581140C8409E
:101A8000A06070BDB0B50C281CD0032845D14F4CC8
:101A9000A06C032108400A048018514A904245D0A6
:101AA000504A90423BD0504A904245D1201F006896
:101AB000382202404748082A00D186E0102A66D121
:101AC000226815E0414CA06C0C21014088080328D5
:101AD0002CD0022823D0012839D1201F00683821BA
:101AE00001403C48082970D0102950D121680322B8
:101AF0000A40032A00D03648216849044A0E42436E
:101B000020684006400F411C1046FFF706FC216884
:101B1000490F491CFFF701FCB0BD0020B0BD0C3CD3
:101B200020684005C1172A480840B0BD0120C10304
:101B3000206D80030840B0BD251F28683822024070
:101B40002448082A30D0102A28D122680AE0251F0C
:101B50002868382101401F48082925D010291DD1A7
:101B6000216803220A40032A00D019482168490449
:101B70004A0E424320684006400F411C1046FFF7C2
:101B8000CCFB2168490F491CFFF7C7FB0CE00C3C5C
:101B900020688004410F0E48C840B0BD0C3C20684E
:101BA0008004410F0A48C84029682A68920A1C2309
:101BB0001340094AD2581F231A4089093C240C407B
:101BC000064909591940C840D040B0BD0C10024028
:101BD0000024F40000127A0008770008C876000894
:101BE0000300030002000300010003000149086034
:101BF0007047C046F0000020B0B51F22D30234C9A0
:101C00009C433F239B029D430B782B4323430F248C
:101C10002403A2431A4303239B034C689C431443AD
:101C20004A88154B134023430A6A1A433E4B0C392A
:101C3000984202D042640020B0BD104B1A404B695C
:101C40000F4C1C4014438A690E4B1340234323223C
:101C500012064C6A94431C4311225206CB699343EB
:101C60002343012252070C6A94431C438A6A22438D
:101C700042640020B0BDC046FF1F0000FFFF00CC43
:101C8000FFFF0FCCFFFF0FDCB0B505680122940702
:101C9000A04205D0244B984202D0244B984217D141
:101CA00070239D434B682B43214DA84214DD214CEA
:101CB000A04206DC1C4CA04216D0214CA04213D0FE
:101CC0002FE01D4CA0420FD01C4CA0420CD028E0AD
:101CD0002B46174DA842EADCA04205D0134CA04287
:101CE00002D0184CA0421CD103242402A343CC6888
:101CF0001C4304608B68C3620B888362D14BC3189A
:101D00009B0A8405E318072B06D814469C40E12360
:101D10001C4201D0097C01634169114341610020EB
:101D2000B0BD1C46E5E7C046002C01400004004061
:101D3000FF2B0140FF4301400048014000440140A7
:101D40000040014000200040F0B584B00123BC4CAD
:101D5000A1424FDC012900D18BE0102900D1C4E061
:101D600001273C02A14200D063E1016AA143016264
:101D7000B949491C13691B020B4003210391090255
:101D8000046A8C431C43516809022143AD4BC318BC
:101D90009B0A8405E31845681668C469072B21D897
:101DA0009F40E1231F421DD0039F3B039D43536986
:101DB000019393690293D3690093029B1B010296DE
:101DC000A44E1E402E43009B5D013543BB02994348
:101DD000A24B1B1D019EB6021E400E439168890254
:101DE0003143029E4560994B1C403443C461D26824
:101DF000C2631CE101242503A94200D1B5E02504FA
:101E0000A94200D1E4E02505A94200D011E1016A10
:101E1000A94301628B494118890A83055B18016A4D
:101E20001568039555681669476D072B11D80291FF
:101E300031462E4625469D40E1231D4235460E463D
:101E4000029906D0A30444689C4393699B022343F0
:101E500043607D4B1F40039B1B023B434365D2689D
:101E6000C265032212059143720852050A432905EF
:101E7000DCE00127F943036A0B40036213690B405E
:101E8000046A032102918C431C4316685168214364
:101E90006C4BC3189B0A8405E31845688469072BBB
:101EA0001BD803963E469E40E1231E4214D0029B5F
:101EB0001B029D437B02566902969769D6699F4330
:101EC0002F4375003D430C239943029B5B08DB00C5
:101ED0000B43916889001943039E45605B4B1C408E
:101EE00034438461D2684263A1E0016A10239943BC
:101EF0000162016A3023994313695B085B010B435C
:101F00005168090119434F4BC3189B0A8405E61811
:101F1000456817688469072E1ED803970127B740C4
:101F2000E126374217D00326B602B5435369029320
:101F300097692646D469BF00484B3B402B43E500D8
:101F400034461D43C0239943029B5B08DB010B43CE
:101F5000916889011943039F45603D4B1C403B023A
:101F600023438361D268826361E0016AA94301620D
:101F700034494118890A83055D18016A4368166867
:101F80000296566817690397C769072D56D80196B8
:101F90002646AE40E1252E424ED0A403A3439469C9
:101FA000A4011C43019E4460294B1F40029B1B025D
:101FB0003B43C361D2680264032212039143254A62
:101FC0001032039B1B0313400B43310319432EE0D4
:101FD0001E4F7337016A394001621A494118890A54
:101FE00083055E18016A15685368039313690293A9
:101FF000436D072E09D8B440E126344205D0446829
:102000003C409669360226434660104CE41C23404F
:102010002B434365836DD26882650322120491438A
:10202000029A520852040A430399090411430162B7
:102030000023184604B0F0BD1C46B3E71C46B2E7C7
:10204000FF0F000000D4FEBFFF8FFFFE8CFFFEFFDE
:10205000FF8CFFFEF0DFFFFFFFFDFFFFFCF7FFFF40
:10206000F0B583B004460068C00724D10D4620684F
:1020700033490140A8680843296901436869084356
:10208000E969014321600320010362688A43E9682A
:10209000114361600002A1688143A8690843A06000
:1020A0000126284884420ADC2948844216D029485F
:1020B00084420CD03BE00126304603B0F0BD2248FC
:1020C000844204D02148844231D1032007E068468D
:1020D000FFF79AFC0298002805D128E00C20FFF7B2
:1020E000D1FC002823D06F68002F20D0296800265B
:1020F0000B291CD8890018A25158FFF70EF90121AD
:10210000C903EA698A420BD1790840004018394670
:10211000FFF703F91C4901400007400F401805E094
:10212000790840183946FFF7F8F880B2E060E06AB5
:102130000F21884329880143E162304603B0F0BD96
:10214000F369FFEFFF4B0040004C004000380140B6
:102150000044004000480040010000000200000070
:102160000400000006000000080000000A00000053
:102170000C000000100000002000000040000000E3
:102180008000000000010000F0FF0000F0B58FB0FB
:10219000002708970797069705970497E04A106865
:1021A0000121019108431060106808400E900E98BC
:1021B0001068022108431060106808400E90032642
:1021C0000396042002900E9805200007009002ACB0
:1021D0002146FFF7ABFB069703960825029500986A
:1021E0002146FFF7A3FB069703960295D0482146A8
:1021F000FFF79CFB0697039680250295CC48214665
:10220000FFF794FBC64AD06801990843D060D068B4
:1022100008400E9048050D900C970B970A950D46B7
:10222000480209900E98274C08A92046FFF768FB42
:10223000B004216881432160206823490840206060
:10224000201F02680A4002602168204A1140216074
:102250000168114001600E971D4800681D49FFF795
:102260005CF8C82141430E910E98002817D00E98B3
:10227000401E0E900E98002811D00E98401E0E9011
:102280000E9800280BD00E98401E0E900E98002835
:1022900005D00E98401E0E900E980028E7D10E48EB
:1022A00041680E4A114041600168114001600C48CC
:1022B0000168FF22914301602803E74908600FB0DD
:1022C000F0BDC04604020140FFF7FFFFFFBFFFFF64
:1022D000F000002080841E0080180240FFFFFBFFFA
:1022E0000CE400E00E4908460C380E4A02600E4A23
:1022F00002600A46083A002313600B1F0B4A1A605B
:102300000B685B0708D00B685B0705D00B685B07A1
:1023100002D00B685B07F3D14A6005490160704742
:102320000C300040CCCC000055550000FF0F0000E1
:10233000AAAA0000F0B5A7B00025259524952395FD
:102340002295219510950C950124E3020693BB4A32
:10235000D0681843D06021A90D740D80D068184052
:1023600019907048239019986F4E3046FFF78CFCF7
:1023700030688021019108433060B06908210591DF
:102380000843B0611A951B951C951D951E951F95C8
:1023900020956020199019AF304621463A46FFF744
:1023A000D3FC0420C1430491B0690840B061B06916
:1023B00006990843B0611B951A95102130463A469C
:1023C000FFF7C2FCB06959490840B061F06905994E
:1023D0000843F0611B951A952102029130463A4656
:1023E000FFF7B2FCF06904990840F061F0690699C2
:1023F0000843F0611B951A95210330463A46FFF7D2
:10240000A3FCF06949490840F061706D05990843E3
:1024100070651B951A95210430463A46FFF794FCE7
:10242000706D049908407065706870218843706011
:102430000F2000057168814371600DA9CD813C209A
:102440000873B068019FB843B0601895179516954A
:1024500060061590149513951295600311900F95D1
:102460000E950D953046FFF7C7FB74490868264660
:102470002043086008682040039426902698086846
:102480000224204308600868204026900C940B9595
:102490000A95099508940797269805200007069045
:1024A00007AF3946FFF742FA0C940B950A95099548
:1024B00008940796624E30463946FFF737FA0C9477
:1024C0000B950A9509950894079430463946FFF70D
:1024D0002DFA0C940B950A9509950894029807908B
:1024E000069E30463946FFF721FA0C940B950A9563
:1024F0000995089403984002079030463946FFF743
:1025000015FA0C940B950A95099508940398800286
:10251000079030463946FFF709FA27B0F0BDC046AC
:1025200034100240B80B0000002C0140FFFBFFFFFD
:1025300000040050F0B58DB000240B940A94099467
:1025400008940794022502953C48816829438160DC
:10255000816829400C910C99016829430160006849
:1025600028400C90059404940394102001900C983A
:10257000012006900746324801A9FFF7D7F93148F4
:10258000016820221143DF23994301602E4801682E
:102590002E4B0B40036003210B0306689E4306602D
:1025A000036893430360026840239A430260026811
:1025B0008026324302600A020368934300973A027E
:1025C0009A180260890202688A43F9025118016070
:1025D0001F480168FF22914301601E480990401C7A
:1025E0001D49086007A90C800A9408941B4F3C46BB
:1025F000183C2046FFF748FBF0432168014021606A
:10260000394614390A6870239A430A6039461039EA
:102610000A6802400A60386800990843A843386095
:1026200038680C21884338603868F0218843386066
:10263000B8680A210143B9600DB0F0BD3410024002
:10264000000400500008024008000240EFBFFFFFF6
:1026500010E400E0FFFF000000E100E0180400408B
:1026600070477047F0B581B0374801680126B14323
:1026700001602024354D285D297F01290AD1401CA5
:102680002855C1B2072903D32E5531480677304665
:10269000304009E0411E2955080603D1062129557D
:1026A0002B48067730468843E876EFF3108072B601
:1026B000274FF87F002802D1285D00F043FB62B667
:1026C00000F0E8FAF87C797B01432248009407D0B7
:1026D00000697D210901884202D9EE75002002E0DF
:1026E000E97D484248412D2100227A542F217A5415
:1026F0006021795A5622AB5A03265E4373189E080E
:10270000AE521E0AEC7974434C26BC539B035B0CFF
:102710001B1BBB52009AAA5C52000E4BD21851846C
:10272000002805D198690C49884208D901B0F0BD4C
:1027300001F00AF9074B986907498842F6D8401C0E
:10274000986101B0F0BDC0460C2000401000002090
:10275000A4040020200500200F27000070477047C8
:1027600070B53C4A13680220034305218B43136074
:10277000126801263202384D2B6813432B60B202D7
:102780002B68134208D12B68134205D12B681342E2
:1027900002D12B681342F3D02A6E32432A662A6E86
:1027A000920708D42A6E920705D42A6E920702D4A3
:1027B0002A6E9207F3D5EA68284B1340284A9A18E4
:1027C000EA6032062B6813432B603207EB68134331
:1027D000EB6072062B68134208D12B68134205D1B7
:1027E0002B68134202D12B681342F3D00F2212023E
:1027F000AB689343AB60AA6802438A43AA60A968A6
:102800003820014010290BD0A9680140102907D0B9
:10281000A9680140102903D0A96801401029EED110
:1028200007200003A9688143A9600E4C2046FFF7EA
:10283000DBF82046FFF7DAF92046FFF7D7F9B005B5
:10284000696D8143696503208007696D814369650E
:1028500070BDC04600200240001002408C80FF1F67
:10286000020800200090D0030120C0060149086042
:102870007047C04608ED00E080B5FFF7F3FE012089
:10288000C0430149086080BD102000400220C043C1
:1028900007490A68920703D40A68D20704D170472F
:1028A00008600A68D207FAD0401C08607047C0462A
:1028B000104401400220C04307490A68920703D42C
:1028C0000A68D20704D1704708600A68D207FAD0B4
:1028D000401C08607047C0461004004080B50548A1
:1028E0000168C90704D00121C943016004F080FADE
:1028F00080BDC0461010004080B508480168C90678
:102900000AD5102141600648016801229143016007
:1029100003F054FC02F05AFF80BDC0461C38014051
:1029200030000240F0B5A3B0FF2000064C490A6811
:10293000824303208307D2180A600124E102494A36
:1029400011600026219620961F961E961D961396BE
:102950001296119610960F960E960D960C9661048F
:10296000414BDA680A43DA60DA680A401592159931
:102970003E490A682C231343D32293430B603C49FE
:102980000A683C4B134010330B6002030B689343FF
:10299000620302929A180A600A6820239A430A6026
:1029A0000A6840239A430A600A6880273A430A600B
:1029B00002020B689343220201929A180A60800275
:1029C0000A688243A002101808601DA90E740E80C8
:1029D00020964F201F9010201E90274D2846FFF76D
:1029E00053F9286838432860A86908210143A96180
:1029F00016961796189619961A961B961C9660208E
:102A0000159015AA28462146FFF79EF9A8690421CA
:102A10008843A86109A9CE810E7309960A960B9680
:102A200014960E9602980D902846FFF7E5F80E4A88
:102A30001068022108431060106808402290089135
:102A40000796069605910491019803902298904864
:102A500003A9FEF76BFF286A2043286223B0F0BD6C
:102A600008E400E000E100E03410024014080240F5
:102A70006C000240EFBFFFFF00440140B0B582B0E0
:102A8000002001900090404C2068C0077AD1206857
:102A90003E49014001252807081820603C4800688D
:102AA0003C49FEF73AFC400001900198002817D0FD
:102AB0000198401E01900198002811D00198401EF5
:102AC0000190019800280BD00198401E01900198B8
:102AD000002805D00198401E019001980028E7D1F8
:102AE0006068032108400090606888436060226845
:102AF000294802401218183222602268002A08D59C
:102B00002268002A05D52268002A02D52268002AF8
:102B1000F3D4009A63688B431343636040210191AF
:102B20000199002917D00199491E019101990029A5
:102B300011D00199491E0191019900290BD00199E9
:102B4000491E01910199002905D00199491E019161
:102B500001990029E7D121680140294321602046DD
:102B600008380168C90708D10168C90705D101689B
:102B7000C90702D10068C007F1D0E80507490A6813
:102B800002430A6002B0B0BD08240140E8FFFF6FB5
:102B9000F0000020400D0300E8FFFF7F0827014000
:102BA00070B53B4B1868042101430820814319602C
:102BB00002249C6203210A0505200007056895434D
:102BC00001221605AD190560950285621D68154341
:102BD000A5431D609A628B0404689C439304E31828
:102BE0000360530283628B0304689C439303E318DE
:102BF000036080238362090403688B43110459181E
:102C000001601102816270BD70B5E9490A78E94C32
:102C100020680C239843002A03D008221043206028
:102C200004E00422104320600220A0620322130566
:102C30000520000705689D4301235E05AD19056069
:102C40000E7825689543002E03D002263543256073
:102C500002E01D432560A36294040568A543DC04DB
:102C60002C1904600C7895030168A943002C03D04B
:102C7000DC032143016004E09C03214301608021C7
:102C80008162110402688A4359045118016070BDC1
:102C900000040050B0B5244A1378132040012349A2
:102CA000042B01D0012B08D1214B1B681C680C4060
:102CB0000546203525431D601378052B01D0022BD6
:102CC00008D11B4B1B681C680C400546103525437A
:102CD0001D601378062B01D0032B05D1144A12680E
:102CE00013680B40034313601248037812481349DA
:102CF000134A002B0BD003680B400360016811409E
:102D000001600B49496842680A434260B0BD084B04
:102D10005B6804681C430460436813404360426876
:102D20000A404260B0BDC046300000200FFCFFFFEB
:102D3000000000202B00002000180240FFFFFBFFD6
:102D4000FFFFFDFF70B5401E052800D92EE1C046EB
:102D50007844007940008744020F2A5775939448BD
:102D60000278944908680C239843002A00D19FE018
:102D7000082210430860A0E08E4B1868042101432C
:102D800008208143196002249C6203210A05052062
:102D900000070568954301221605AD1905609502E7
:102DA00085621D681543A5431D609A6119E0814B3A
:102DB00018680421014308208143196002249C61A2
:102DC00003210A0505200007056895430122160521
:102DD000AD190560950285621D681543A5431D6008
:102DE0009A628B0404689C439304E31803605302C3
:102DF00083626F4B1C788D030368AB43002C4BD070
:102E0000D403234303604CE06A4B18680421014358
:102E100008208143196002249C6103210A050520D2
:102E200000070568954301221605AD190560950256
:102E300085625F4D2E781D688D43002E5ED0254340
:102E40001D605EE05B4B186804210143082081434C
:102E5000196002249C6203210A0505200007056809
:102E6000954301221605AD19056095028562504D06
:102E70002E781D688D43002E52D025431D6052E0F0
:102E80004B4802784B4908680C239843002A60D0CD
:102E900008221043086061E0940323430360802309
:102EA0008362090403688B4351045918016070BDA3
:102EB00004221043086002208862032213050520C3
:102EC000000704689C4301235D05641904600C68D5
:102ED0001C430225AC430C608B61910404688C4355
:102EE00099046118016059028162910304688C435E
:102EF000990361180160802181624FE015431D60D4
:102F00009A628B0404689C43D304E31803608B0328
:102F100004689C439303E31803608023836210E0FA
:102F200015431D609A628B0404689C43D304E31824
:102F300003608B0304689C439303E31803608023BE
:102F40008361090403688B4311045918016011025D
:102F50002BE004221043086002208862032213053C
:102F60000520000704689C4301235D056419046083
:102F70000C681C430225AC430C608B62910404680E
:102F80008C439904611801605902816291030468BD
:102F90008C439903611801608021816111040268EA
:102FA0008A431904511801601902816270BDC0463C
:102FB0001200002000040050F0B58DB0DE4801681A
:102FC000C56F6A1ADD4E728193B25A093281DD4CA7
:102FD0002488A34200D80BE1D94C2488A34200D313
:102FE00006E10A954368591A012500230C93914282
:102FF000294600D80C990991F1618168C368591A72
:103000009142294600D80C990891316201694369BF
:10301000591A9142294600D80C9907917162816929
:10302000C369591A9142294600D80C990691B16298
:10303000016A436A591A9142294600D80C990591B0
:10304000F162816AC36A591A91422F4600D80C9FD7
:103050003763016B436B591A91422C4600D80C9C84
:103060007463816BC36B591A9142294600D80C993D
:103070000B91B163016C436C591A9142294600D8F7
:103080000C990391F163816CC36C591A91422946E2
:1030900000D80C9902913164016D436D591A914227
:1030A000294600D80C9901917164816DC36D591A3C
:1030B0009142294600D80C990491B164016E436E87
:1030C000591A9142294600D80C990091F164816EF9
:1030D000C36E591A91422B4600D80C9B3365016F81
:1030E000466F711A9142294600D80C99934E71652A
:1030F000806F0A9E301A904200D80C9D8F488565DB
:103100000998059A424003984240D000089A5740D7
:10311000029A5740BA001718079844400198444053
:1031200064000B98069A50400B900098C0009A00DB
:1031300010184900461884480078844909780143EA
:103140000DD100F007FD002809D07C490879401C0A
:103150000871C0B2652802D301207B49087070193C
:1031600039190B9B049A5340774A1278002A01D0F0
:103170000F225040714D1943884236D11C353CCD49
:103180006E48C66A076B416B806B92025B02134309
:1031900022021A43EB011343B201684E1A437B012A
:1031A000134309011943C000084334463C341ECC84
:1031B0008D000543510029431943CC4A002010805B
:1031C000B289521CB281012C02D1614A01231370D1
:1031D00030290FDB7278002A0CD05E480022027082
:1031E000C6480180B2700DB0F0BDE889401CE8818E
:1031F0000DB0F0BD4A1E2E2A06D856480170BF48B1
:1032000000220280C8B20EE0002902D051480078A6
:1032100009E03178012901D1002171704D49087010
:10322000B6490880B0700028E2D04B4909780029DF
:10323000DED1464909780029DAD0F178884202D0F7
:103240000021B170F070052805D3B178491CB17028
:10325000C9B20629CCD30025B570411E142900D966
:1032600063E0C0467944097949008F440A14181C68
:10327000205E242B32365E3B45505E5E5E5E5E57BE
:103280000E003849012008704FE034480078344976
:103290000870152049E033490220087045E03149A3
:1032A0000320087041E02F49042008703DE02D49BB
:1032B0000520087039E02A4801210170274805706F
:1032C000072032E0264805702448012101700820BB
:1032D0002BE088480570092027E08648012101700D
:1032E0000A2022E002F082FC1C480078401C1D49A4
:1032F00008701848007818E0012171710720400219
:10330000F08032780D20012A0FD171700DE07571B7
:1033100007204002FF30F0800E2006E00F480078C2
:103320000121081A0E49087014200A490D700E492F
:1033300008700DB0F0BDC046C8050020080400208C
:103340007400002094040020C4040020CB0400205A
:10335000C2040020C9060020C7040020AE040020DB
:103360002C000020BF04002060080020F0B581B0D0
:10337000564E03CE081A564C0119574A083E914240
:103380000BD8564D6978002909D0E97800295FD11A
:10339000A97800292DD028892CE04E4E7FE0554990
:1033A000097800290DD054490A887D21CB0090422C
:1033B00016D94B4C248809010091511C5B1C2246F4
:1033C00012E047490A884A4909887D231B012F33A7
:1033D00000932F2301F08EFF312807DA002005E04B
:1033E000434909880093002301F084FF28613F4E80
:1033F00055E02881491CA970394F398880B200F006
:103400009BFB332802DB002068701AE03888072114
:10341000414305CE101A4018C0083880A978083EEC
:1034200033290ED3193881B22E4A8918CA0F891848
:10343000490821222C4B99540121E970388002F06F
:1034400081F838882881E8780028D0D003CE081A7F
:1034500029797D22D200FA32904208D2491C297182
:10346000234A138807265E433018C0081080C8B26C
:103470001E4E4C2813D31E48018819318AB2A21857
:103480003332D30FD21852082023174CE2540024B1
:103490006C70018002F0AAFB2C7102F02FF8002062
:1034A0003080164802880D4909698C1A144B1B6834
:1034B0009C4201DDD11806E0541A9C4203DDD11A6A
:1034C000018001B0F0BD018001B0F0BDC805002051
:1034D000DFFCFFFFF20400207605000088040020D6
:1034E0003E0000202AF9FFFFCA060020FC0400204D
:1034F0003C000020AF04002040000020F604002023
:1035000030010020F0B591B0002508950595012007
:1035100006908203019206464748C1681143C16084
:10352000C168114010911099016802221143016095
:103530000068104010900795049203921098402460
:1035400002943E4802A9FEF7F1F93D480168322293
:103550000A43CD218A4302603A4F38683A49014014
:103560003960032001033A688A433A6039682022AF
:103570000A433A603968A1433960396880220A43B6
:103580003A6001023A688A433A60800239688143AE
:103590003960FF2000062D490A688243F0071018A1
:1035A0000860F0060096E349086007204107284CB0
:1035B00022688A43226040062168814321607007A7
:1035C0002646083E3168814331600F950E950420F0
:1035D0000D900C950B950A951E48099008A9304648
:1035E000FEF73EFD009B980221688143216009207F
:1035F000C002211F0A6882430A6020682221884392
:103600002060206808210143216030681843306041
:1036100001991031386808401C34102803D1FC602F
:103620000D48B86002E0BC600B48F86030681021BB
:103630000143316011B0F0BD34100240000400506D
:103640000808024030000240EFBFFFFF18E400E02E
:1036500008380140A06806006105002018490022D2
:103660000A600A68824208D20A68824205D20A6861
:10367000824202D20A688242F3D3704710B51049E1
:1036800000220A60192212024A600A46103A14689F
:1036900001231C4314600A2444430868A04208D252
:1036A0000868A04205D20868A04202D20868A04279
:1036B000F3D34020486010681843106010BDC04626
:1036C00024480140F0B57F4BC9337F4843807F4990
:1036D0000F6800252A4603E052182835782D77D048
:1036E0007A494E197168CF1B1BD1B768791A21D15D
:1036F000F168CF1B27D13769791A2DD17169CF1B9A
:1037000033D1B769791A39D1F169CF1B3FD1376A03
:10371000791A45D1716ACF1B4BD1B76A791ADCD0BF
:1037200050E09CB2A74201D247803B46D219B7680D
:10373000791ADDD09CB2A14201D241800B465218C9
:10374000F168CF1BD7D09CB2A74201D247803B463D
:10375000D2193769791AD1D09CB2A14201D24180E5
:103760000B4652187169CF1BCBD09CB2A74201D235
:1037700047803B46D219B769791AC5D09CB2A1429D
:1037800001D241800B465218F169CF1BBFD09CB2C9
:10379000A74201D247803B46D219376A791AB9D07D
:1037A0009CB2A14201D241800B465218716ACF1BD4
:1037B000B3D09CB2A74201D247803B46D219B76A28
:1037C000791A8AD09CB2A14286D241800B4683E707
:1037D00051093F4DA9613F4C2178012925D1991EFE
:1037E00089B202290AD80F21C9018A4206D20021D2
:1037F000A971394E31700E2636490EE0591F89B233
:10380000032912D81921C9018A420ED23249012650
:103810000E7030490E70A91D0726304F3E700126EC
:103820000E70202101702E490E701F46C93F2D4990
:10383000097801290DD1BDB2224EB54209D2264DDB
:103840003F262E700125274E357002260670244E25
:10385000357025780D4300D0F0BD991E89B202293C
:103860000AD80F21C9018A4206D20021184A917153
:10387000194A11700E210EE0591F89B2032914D87C
:103880001921C9018A4210D2134901220A702270FB
:103890000F498C1D0721114A11700121217020212F
:1038A0000F4A012313700170F0BDB9B2054A91426D
:1038B000D2D209493F220A7001210A4A117002211D
:1038C000EEE7C046574D000070000020C8050020FC
:1038D00088040020CF040020F5000020F400002020
:1038E000CE040020D0040020FF20000410490A6804
:1038F00082430320800510180860012081026D4A70
:1039000011600D490D4A8A600D4ACA604A680D4B24
:103910001340DA1C4A600A68022313430B600A68EA
:10392000082313430B600A6802430A607047C046CD
:1039300008E400E000E100E01C00024040240140F7
:10394000500500200000FFFF814840685A490A687E
:1039500002430A607047C046B0B582B04E48016865
:10396000012421430160016810220A430260210200
:1039700002680A430260016804220A430260016887
:1039800040220A430260A10202680A430260210445
:1039900002680A430260210302680A43026064214C
:1039A0000162014620390A6822430A60E503416A40
:1039B000294341620C380168214301603748016A9C
:1039C00021430162016821430160354801460C39F9
:1039D0000A6822430A6081682143816001682143AB
:1039E00001600168A1430160EB4801682143016067
:1039F000416921434161A007016821430160416998
:103A000021434161E5480168214301604169214347
:103A10004161C1682143C160FDF778FDFFF764FF94
:103A2000FFF72CF8002001901E4801682143016037
:103A30001D4800681D49FDF770FCC0000190019809
:103A4000002817D00198401E01900198002811D03D
:103A50000198401E0190019800280BD00198401E4B
:103A600001900198002805D00198401E019001980E
:103A70000028E7D1FF2000060D490A688243E007CD
:103A800010180860BF48802101600B480168294375
:103A9000016002B0B0BDC046202C014000040040CF
:103AA0000C20004004020140F0000020400D030003
:103AB00004E400E000E100E08018024070B5194B1A
:103AC00018680421014308208143196002249C6185
:103AD00003210A0505200007056895430122160504
:103AE000AD190560950285621D681543A5431D60EB
:103AF0009A618B0404689C439304E31803605302A7
:103B000083628B0304689C439303E3180360802360
:103B10008361090403688B43110459180160110281
:103B2000816270BD000400500248016801220A430E
:103B300002607047142C0140401AC1174840401AD7
:103B4000704700000248006800684000C00F7047DE
:103B50000000002002480168102008407047C0465D
:103B60001004005002480349016062B67047C04625
:103B700008ED00E000100008F0B58DB07C4A5068F8
:103B8000012528435060506828400790079828076F
:103B900011680143116011681446014007910798AC
:103BA0007448016808220A430260016810220592E5
:103BB00011430160280270490A6802430A60FEF757
:103BC000CFFD20460838016829430160016829407B
:103BD00007910799016802221143016000681040B3
:103BE00007900798201F016829430160006828405A
:103BF00007900798614A106861490840A903401876
:103C0000106068025F4908600B46FF2002900004C4
:103C100011688143A80508181060A8021860FEF713
:103C2000B5FAFEF787FB00270B970A9709970897C5
:103C3000079720682843206007A91F20009008806C
:103C4000206828400C90504809900C984F4E3446FC
:103C5000083C2046FEF718F880200390C1432068F6
:103C600008400A46069120603068494901403160A9
:103C70007020C3430493301F01681940016030680D
:103C800010403060FEF756FC0B970A97099708978B
:103C90000797EA030192364948681043486048682C
:103CA0000E4610400C900C9802980006334A91681A
:103CB00081439160E8043349086007A900980880AF
:103CC0000A97314809900897324C2046FDF7DCFFEF
:103CD00020680699084020600B970A970997089773
:103CE0000797A804324671680143716007A90F74F1
:103CF0003F260E80526802400C92234809900C988F
:103D0000254C2046FDF7C0FF20680399084320603A
:103D10000B970A97099708970797154A106805990E
:103D200008431060106808400C900C98134A906883
:103D300013490840019940189060680411490860CF
:103D400007A90E80322009900897144C2046FDF7F1
:103D50009BFF20680699084020606068049A104024
:103D60006060A0680840A060FEF7DCFD0DB0F0BD0B
:103D70003C100240000001400020024008E400E046
:103D8000FF00FFFF00E100E0FFFF0000080000402F
:103D9000F8BFFEFF00200040004801400010004036
:103DA000F0B581B0344D286934497E2824D30B46C0
:103DB000096833487C290AD85421415AC9084A293C
:103DC00005D8A96989087D2901D201B0F0BD562125
:103DD0002C4A515A49081A688A42F6D32521425C76
:103DE000521C4254D0B26528194605D301F0A6FAF8
:103DF0000020A86101B0F0BD08686027204CE053A6
:103E0000204E707EF17E00290BD0002814D00025B2
:103E1000FFF798FE0028D8D16D1C707E8542F7D33D
:103E20000AE0002808D00025FFF78CFE0028CCD03F
:103E30006D1C707E8542F7D301F080FAEFF310809D
:103E400072B6E15B0D4B1A6800208A42024601D926
:103E50001A68521A1A605621625AB37DDA406252C9
:103E6000094988610A6248600868012202430A60C1
:103E700062B601B0F0BDC04620050020240000401D
:103E8000A4040020100000200C200040F0B583B0F6
:103E900001273C02E64DE7492846224601F06EFC28
:103EA000687804280BD8BFF34F8FF248F2490160BD
:103EB000BFF34F8F00BF00BF00BF00BFFAE7687CB1
:103EC000401E41424141DC4EB172A87C401E41423D
:103ED0004141F172E87C012800D1B7730297E87D77
:103EE0001F2800D31020D54FF871287D401E414275
:103EF0004141B970687D401E41424141F970A87D41
:103F0000401E414241413971287E01460839CC4A60
:103F1000582928D8CB4E182809D3CB49009118210D
:103F20006022334601F0E6F946217852287E0146A8
:103F30000C390B2908D800960C211822C34B01F02C
:103F4000D9F946217852287EBB4EFC210140082930
:103F50000ED1BF49009107211022BE4B01F0CAF9D2
:103F60004621785206E04420B6493952116008E0F3
:103F70004620385AB24A502178524821785280B2AD
:103F800010600194687E01463239C9B2642901D8B3
:103F90003138F874E87E3872A87E282460431430E3
:103FA000B884287F401E414241413173687F401EE2
:103FB0004142414171730226304602F0D9FD6878D2
:103FC00000282DD0A87F0B2800D9052002F0D0FDB5
:103FD0002320285CB8732220285C9F49401838862B
:103FE0002020285C40009D494018B8852120285C8D
:103FF00040009B494018F885E87F401E41424141FE
:104000008D48C1732420285C02280CD0012813D1CC
:10401000894E0298B0742520285CFA3078860EE02C
:10402000BD8C019CD9E08448867406462520285C16
:1040300064214143798402E000207F4EB074002067
:1040400030742621695C491E4A424A41F274295D56
:104050004A1F142A00D879732921695C4A1E092A4B
:1040600000D8B9722A21695C4A1ED2B2082A0AD83D
:10407000F9720922D2434A432E3A3A73D1B2704BB5
:104080009A690A439A612B22A95C0B46463B462B50
:1040900000D8B9712C23E95C4C1E622C03D8029C19
:1040A000B4754900F9842D21695C4C1E092C00D897
:1040B00079722E216C5C092C0AD8042C0DD8C046CC
:1040C0007C4424796400A744029EA3A7AB005A4E07
:1040D000F054B054634A029B13703522AA5C521EFE
:1040E0005342534173543621695C012921D1372150
:1040F000695C142251432F315A23F1523821695CF3
:1041000051432F315C22B152029971703B21695C9D
:10411000564A3C23EB5C3D242C5D121D1AC239210A
:10412000695C64224A433A21695CC8234B43BB65FE
:10413000FA653F21695C14224A4340217A524E239A
:10414000FC5A3E7BA419FC523E23EB5C3A4CE386BE
:10415000FB7CD3187B879219374EFB8FD218FA87D6
:10416000695C552901D1029931704121695CB170B6
:104170004221695CF1714321695C39704421695CB9
:1041800031724521695C5529019C04D0AB2905D1C8
:104190003146283100E0311D029A0A704621695CDF
:1041A000F170BD8CA9084A2900D83874397A2020CA
:1041B000FDF7B3F8064611212846FDF7AEF8314663
:1041C000FDF7ABF84C21785264212846FDF7A5F89D
:1041D0003146FDF7A2F84A2178522046F43000908B
:1041E0002C347D20C300224A2846214601F082F863
:1041F0003887B8780028104901D003B0F0BD0020FE
:10420000C87203B0F0BD0C4E029BB354154A63E76D
:10421000094E029AF25460E70522074E72715CE77C
:10422000054E029BB3540F4A10700F4A54E7C04624
:10423000CA06002000F80008A40400201000002096
:104240002C2C01406B0A00009A020000D6140000DA
:104250009F0F0000411F00005E050000EE020000FD
:10426000D606000009040020080400207800002081
:10427000B80B00000CED00E00400FA0500B595B0A5
:10428000FFF770FCFFF778FCFFF766FBFFF7FEFD1A
:10429000E24C207901256840E178032201925140E7
:1042A000014328020290002931D00120207103200F
:1042B000E070601DDAA10C22FCF718FFDC484178A1
:1042C0006170C179E175DB498A7A521E53425341CC
:1042D0006374CA7A521E53425341A374897B491EA8
:1042E0004A424A41E2748178491E4A424A41227553
:1042F000C178491E4A424A4162750079401E4142D6
:104300004141A175CC4A2046029901F0A3FC0495D5
:10431000C848807B002802D0C548818F418746204D
:10432000C34D0B902E5A44200F902E5250201090C7
:104330002E524E27E85B70437D2114910C012146DB
:10434000FCF7EBFF0397E853BA4FB87A401E411EC3
:1043500088412877E88F70432E462146FCF7DDFF21
:10436000297B4018E887A878002801D10020B8737D
:104370001498C200F87C00283D4613D003983252AE
:104380004020315A323131524220315A3231315289
:104390000020A8730121E972317430717080708F30
:1043A000323070870E927D240027204639463A46E7
:1043B00001F0CAFD6879401F01280CD8FFF7A2F868
:1043C00001F004FA2A200121295401F047F99B4801
:1043D0009B4908600DE002F039FC03982F52974882
:1043E0009749086001F008FA6878002801D0012098
:1043F000687528789349002807D056203152AF734A
:1044000000F09CFF01F040F801E001F027F902F014
:1044100091FBFDF767FFFF200C9068300A90E000E9
:10442000059020010D901497A87900280E9C8348D0
:10443000834912D0687A022807D0012802D1FEF7FA
:10444000BBFD6F7201F0F2FF04E07F48808B00F04B
:1044500073FE6F72AF717948794908607A4AD08CDF
:10446000918C0818118D4018518D4018918D40186D
:10447000D18D4018001D4008D061F07800280BD085
:104480005620305A0B99715A00914B086021C8226E
:1044900000F030FF0F9970522820285C002808D0C7
:1044A000688EA04205D22920285C002801D000F0A7
:1044B0009DFD5820285A654988420AD32721695C06
:1044C000002901D000F09AFD6149884201D900F02D
:1044D000B9FD40201390285A5E4988423BD34220C0
:1044E0002C5E2046FCF7F5FE5B49FCF77CFE01469E
:1044F000554FB868FCF71EFEB8605848007803288E
:104500000AD0022817D0012822D13020295C0A982D
:1045100099300843022117E06C20285A5049414342
:10452000090C401A400840180009C1B20E98183012
:104530000843012108E0A0B2C0B229214143C80AC2
:10454000019A510240181146444A117045490880A9
:104550000020139968523C4FBC692878002800D18C
:1045600056E1F86903210991FCF7F6FE014638612E
:10457000287F002832D00B2C30D3334C206AFFF731
:10458000DBFA21690D9A914224D24A08904221D93E
:1045900000202D4A9061EA7D521CEA755622B25ADB
:1045A0000E9B9A4200D90120049B5022AA5A2F2A1E
:1045B0001A4600D824E3EB7A002B00D025E3012A29
:1045C00002D1232000222A54708F40080F9AA8524B
:1045D0000120F0751C4801620020287756201190B8
:1045E000325A202012902B5C0C9804021E48083886
:1045F0000168A143002B3DD03D2A3BD301601A4AFC
:1046000010681A4908401A49243901431160101FE3
:10461000006813990843BF2138E0C046CA0600204D
:104620004E657574726F6E52432047300000000073
:1046300010000020A404002000F80008AAAA00002E
:1046400000300040881300002005002011270000E2
:10465000409C0000214E00000000B4430D040020E7
:10466000AF4700000E04002010E400E0FFFFFF0051
:10467000240000400122920311430160E14A1068C6
:10468000E14908401060101F00680C998843149F8E
:10469000111F0860A87F002816D06879002813D160
:1046A000DA488068FCF720FE034642202A5A6C2034
:1046B000295A3020285C72242C5B009400F000FD05
:1046C00001F056FD0020A877687F401C6877C0B2D3
:1046D0006528109900D2DAE0FCF704FFCC480068A6
:1046E00040000321FCF719FE0F99715A401C80B25B
:1046F000884200D30846B086C5494860C549086865
:10470000C54A1040001D08607420285AC349484318
:10471000C349FCF702FEC3490A88498C891A801AEA
:10472000642206925043FCF717FE1E303021685475
:1047300076216852212013902F5C7800BA4A115AD2
:1047400008915E21695A079111526C25B748405B68
:104750003446072646437820B449085AAF494843AF
:10476000B349FCF7DAFD617C48430699FCF7D5FDB7
:104770008019C408AD484453AC4D781CC1B2002721
:104780003129394600D80146139829549F49486970
:10479000089A801A079A801848613221FCF7BDFDFB
:1047A0004A21685285B29D486843A249FCF7B5FD8D
:1047B000010400D5384642219C4A50529348C560B6
:1047C0001546907C00281099149F5DD00E46A0B22B
:1047D0009949498C814254D9E88F401CE8872421AB
:1047E000695C964A5143059A891880B281423146E4
:1047F0004ADA502000242C52FEF7D2F900F09EFD38
:10480000314603982C5223202C5427202C543BE073
:104810004820285A4242424105998C42049D29462B
:1048200008D90023642C2A4609D9C8280AD20029AD
:104830000BD00CE011460023642C2A46F5D81A460A
:10484000C828F4D31D46002901D12A4003D02221D3
:104850000022764B5A54754DA97B002904D09F281D
:1048600002D8222100226A54297E002900D1C2E107
:104870000A992931884200D373E622200021295465
:104880006FE60020E8873146002068776A4E2520D1
:104890002F542424285D002800D1D7E0685A3128FD
:1048A00000D228E12721695C002900D123E1882872
:1048B00000D97BE1687C002811D0614A1068012191
:1048C0008843106000F03AFD51490846083800243A
:1048D0000460081F04600C60FEF796F96C74682091
:1048E0000746295A66202A4613902D5A64201290B2
:1048F000135A327F002A0A9C00D162E24A1E11B28A
:104900000029214600D411466A1E15B2002D20460A
:1049100000D410465B1E1AB2002A224600D41A4662
:10492000424E1197F153139FF05312983252542470
:10493000414E305B129411B24900424A515E411817
:104940000B98305A48430D99FCF706FD717A48439D
:104950000A2529460995FCF7FFFC80B202F0F6F81B
:10496000305B3249C95F4900364A515E41180B9F9E
:10497000F05B48430D9C2146FCF7EEFC717A4843FE
:104980002946FCF7E9FC80B202F0E6F81298305AAA
:10499000264D1199695E49002A4A515E4118F05B23
:1049A00048432146FCF7D8FC717A48430999FCF743
:1049B000D3FC80B202F0D6F80E98BE3880B2347ABA
:1049C0002146FCF7AAFC07461F482146FCF7A5FC38
:1049D00003465020285A00973021782200F08AFCA4
:1049E0005224305380B2FEF739FE315B0A98F13021
:1049F000FCF793FC7221685228780028149F00D09D
:104A000085E211E510E400E0FFFFFF002005002033
:104A10003C2C014008240140E8FFFF7FE40C00002B
:104A2000B80B0000A875FF1F62080020A404002036
:104A3000FF0F000049050000100000207CFCFFFF74
:104A40000C20004036010020581B00002324E648BB
:104A5000055DE648C169E648FCF77EFC6843E24D27
:104A60007221685280B2E3494843C00C7A216852EF
:104A7000317C00290DD00399735A4C21725A4A2176
:104A8000715A5025755B0095D74D00F033FC4821D5
:104A900070523020285CB27990420A9F0BD9502185
:104AA000715A012300934B0811460A390A3200F06B
:104AB00021FC482170522E20285C00280AD050206A
:104AC000285A129900910D9A2F322F21022300F0BB
:104AD00011FCF0713D468D35C44FB869632831D85B
:104AE0001198315AA9422DD9C820C34AD061082053
:104AF000642937D337E02E4601257574307B0028B2
:104B000000D187E00B98BD4A145A907A40002018D3
:104B10001338542170520F99515A80B2484321469C
:104B2000FCF7FBFB201A401C7024305300F0F4FD0E
:104B3000305BB14A114608390860111F08601060E7
:104B4000F57770E03220AC49C86138690C210091DA
:104B5000029AF4326421032300F0CCFB1199715ABC
:104B6000642900D202207076B18CA94201D24000A3
:104B700070763869059988429B4D0BD9F07D0028E5
:104B80005CD03120002129549D4908689D4A10407D
:104B9000086060E03120295C00295CD0984A1168E7
:104BA000984B194011600021295454E001200690CF
:104BB000687468201390285A662107916A5A642104
:104BC0000891695A337F002B00D123E1431E18B2AC
:104BD00000280A9F384600D41846531E1AB2002AED
:104BE0003A4600D41A464B1E19B20029394600D560
:104BF00028E1194626E1952800D9DEE06420DDE0B1
:104C00000246EB7A002B00D1D9E40246012A00D1FA
:104C1000D7E4D9E47849084608380760081F0760D8
:104C20000F60FDF7BDFF354672203752734E28786E
:104C30000028149F00D06AE1FFF7F6FB3120295CC1
:104C4000002908D16E4F39686E4A114001221304C1
:104C50000B433B602A546C4800686C49884200D280
:104C60004FE1285D012800D04BE12220295C491C3E
:104C7000295400F063FB01201390F0755020285A4E
:104C8000302805D20020285561485849119A02E081
:104C9000119AB05A554900248C615B4F39686023E2
:104CA0000893E952099B434388B218188008B05210
:104CB00009943C60174684B2B17E2046FCF72DFB78
:104CC0004C2168526108F54AF74C081AE85380B243
:104CD000A1690A2913D21168F1490862129AB05CDD
:104CE000317F0129049F17D1401CB054C1B207295C
:104CF00002D31398B05428771399084016E011682E
:104D00008142E9D211688142E6D211688142E3D240
:104D100011688142F3D3DFE7411EB154080603D185
:104D20000621B1541398287713988843F076EFF34F
:104D3000108072B6E87F002803D11298305CFEF72D
:104D400001F862B6FDF7A6FFE97C481E8141687B49
:104D50000028384600D108460128099F05D121695D
:104D60000D9A914201D91399F1752D216F542F217C
:104D70006F5426216F54A169491CA161089AAA5A4F
:104D8000129BF35C5B001B195A84002808D014297D
:104D900000D2B6E01198305AC849884203D3B0E037
:104DA0001F2900D2ADE0F775FEF7CEFD2878002868
:104DB000149F00D0ABE0FFF737FB0A20B074FFF779
:104DC000D0FB4E1C31B20022A142114600DC31461C
:104DD0006E1C35B2A542104600DC30465B1C1EB28C
:104DE000A64200DC9BE59BE5A404002020050020F2
:104DF000C0270900CDCC00003C2C01401000002051
:104E000004020140FFFFFCFF24000040C9AF000086
:104E1000881300000991431C18B20A998842384649
:104E200000DC1846531C1AB20A998A423A4600DC42
:104E30001A460999491C099109B20A9B99423946B7
:104E400000DC0999089B139FE853079FEA53E95236
:104E50005422B05A164609B24900974A515E411889
:104E60008A480B9A805A48430D9D2946FCF774FAEC
:104E70008649497A48430A210991FCF76DFA80B2C4
:104E800001F064FE8148805B8149C95F49008A4A1C
:104E9000515E41187D480B9FC05B48432946FCF793
:104EA0005BFA7A49497A48430999FCF755FA80B286
:104EB00001F052FE7548805B754D1399695E49009B
:104EC0007D4A515E41187148C05B704E48430D9950
:104ED000FCF742FA717A48430999FCF73DFA80B22F
:104EE00001F040FE1099685AC82814D95220315256
:104EF0001498089FE8530846FEF7B0FBE85B0028CB
:104F000011D028780028149F01D1FFF78DFA00F006
:104F1000C7FCFFF789FA5220305A089FFEF79EFB24
:104F2000E85B0028EDD1232006992954149F2F55C2
:104F30000C46594811997052F4755B4A1062106121
:104F400056490860EF7714209061687B002803D0F1
:104F50004220305A0F996852307E317F0129129ACF
:104F600009D1401CB054C1B2072902D3B4542C77E4
:104F70002046204008E0411EB154080602D1062117
:104F8000B1542C7720468843F076EFF3108072B648
:104F9000E87F002803D11298305CFDF7D3FE62B69B
:104FA000FDF778FEE87C411E8841697B0029049961
:104FB00000D101460129129A05D13B4800690D999B
:104FC000884200D9F4752D202F542F202F546020B3
:104FD000285AB15C4900344A89184884FEF7A4FD78
:104FE00028780028149F92D1FFF71EFA2948401C08
:104FF000582168522720285C002823D0FDF7D0FDD7
:1050000027202F542A202F5410982F5203982F52C4
:105010002449084608380760081F07600F6000F041
:1050200037FC012001022148FCF779F8BFF34F8FCC
:105030001F4820490160BFF34F8F00BF00BF00BF72
:1050400000BFFAE7FDF7ACFD27202F542A202F548C
:1050500010982F5203982F521249084608380760BB
:10506000081F07600F6000F013FC012001020F48C9
:10507000FCF755F8BFF34F8F0D480E490160BFF3A1
:105080004F8F00BF00BF00BF00BFFAE71000002035
:10509000A4040020409C00002823000024000040BD
:1050A0000C2000403C2C014020050020C8050020B9
:1050B0000CED00E00400FA0536010020D1070000E5
:1050C000F0B583B01E4615460346194C0898029069
:1050D0002072A6712271A1702370000A0190E07104
:1050E000300A00906071120AE270080A6070114F75
:1050F000FB5C4340D8B2385C4840C0B2385C50409A
:10510000C0B2385C6840C0B2385C00994840C0B258
:10511000385C7040C0B2385C01994840C0B2385C1D
:1051200002994840C0B2385C607203B0F0BDC0461E
:105130005605002038780008F0B583B0664DEE883B
:10514000002E02D00020E88015E06449097800298B
:1051500000D16348C10B09D103229303034001210D
:105160008C03A34200D08FE0062200E007222A61D0
:10517000D040560206435C480078800001905B49AD
:105180000B1880275F60310A5948405C0090C400CA
:105190003846A04398603509694071400F24029455
:1051A0008C43310109194C4A516100990A013A4076
:1051B0004240DA60C80302990D404D494D5DA90295
:1051C00001434B48005D0090029C2640484CA45D82
:1051D00002946401044326460E433F488661880AD0
:1051E0003840504018614A0A3A4042405A61080A21
:1051F000384050409861EA003A404240DA61290163
:1052000039405140196272093A407F20C043014041
:105210005140596232093A404A409A62F108394095
:105220005140D962029DEA003A404A401A6329017E
:1052300039405140596322463A404A409A630240FD
:10524000610039405140D963A2003A404A401A6493
:105250000021264C019D6151009CE10039405140E4
:10526000596422013A404A409A64610139405140F0
:10527000D964A2013A404A401A650240E001C0B236
:105280005040586503B0F0BD07235B0303404C0357
:10529000A34201D105226AE70F231B0303400C033D
:1052A000A34201D1042262E71F23DB020340CC02A8
:1052B000A34200D15BE73F229202024089028A4268
:1052C00001D1022253E77F2149020140054A891892
:1052D0004A424A414BE7C04608040020C704002068
:1052E000FFFF000000FEFFFFF4000020CC070020BD
:1052F00028780008F0B5059E1D460B4634468242CC
:1053000017DD174693420EDCA54211D061194E10ED
:10531000F9184A1093420ED08242EFDA511C3A46F5
:1053200033462646E8E739461A4623462E46E3E743
:105330002C462046F0BD3046F0BD00000120800420
:1053400004490A6882430A600A46743A1060703958
:105350000860704780180240F0B581B0BA4DBB4874
:105360006860EFF3108072B6BB480078E86028618F
:1053700068617924B64EB74F3760A41E14212046C9
:10538000FBF7CBFFFDF7DEFC60080A3028600A203F
:10539000FEF774F9022CEFD8FDF702FC002028601C
:1053A000CE490880CE480088686062B601B0F0BD82
:1053B000F0B581B00320FDF7C5FC0026322500962C
:1053C00003E0761CAD1CAE2D47D2A248A049086070
:1053D000C24800990180284840198778FF2FF0D0F3
:1053E000C07800282CD00A21B94A1160F721414326
:1053F0007D20400109182148FBF78FFF0446204813
:105400002146FBF78AFFB2494860B349097848430F
:10541000B049FBF782FFAE49C86008614861F0B24D
:10542000FE214143CE1917482146FBF776FF704312
:105430006421FBF772FF80B2FEF720F90026C1E776
:105440000024A348C46004614461F0B2FE214143DA
:10545000C819FEF713F92646B4E7FDF7A1FB0020B3
:105460009B4A10609E49098851609C490880794890
:105470007749086001B0F0BDCA0600208096980008
:1054800000A86100A0860100B0B5EFF3108072B6ED
:105490008F4D9048686090480078E86028616861A6
:1054A0000120FDF74FFC282028604B208400204677
:1054B000FEF7E4F80220FDF745FC1E202860204698
:1054C000FEF7DCF80320FDF73DFC1920286020469C
:1054D000FEF7D4F80420FDF735FC142028602046A0
:1054E000FEF7CCF8FDF75CFB002028607B490880C4
:1054F0007B480088686062B6B0BDC046B0B5744DE8
:10550000744868602820286073480078E860286143
:1055100068610220FDF716FC96242046FEF7AEF8DF
:105520004B484C490160502028602046FEF7A6F801
:10553000FDF736FB0020286068490880684800882D
:105540006860B0BDB0B5624D6248686032202860C6
:1055500061480078E860286168610220FDF7F2FB8D
:1055600096242046FEF78AF839483A4901601E2001
:1055700028602046FEF782F8FDF712FB0020286025
:1055800056490880564800886860B0BDB0B5EFF352
:10559000108072B64E4D4F4868602D482D4901600D
:1055A000502028604C480078E8602861686103203A
:1055B000FDF7C8FB64242046FEF760F8462028600B
:1055C0002046FEF75BF8282028602046FEF756F8B4
:1055D000FDF7E6FA0020286040490880404800882E
:1055E000686062B6B0BDC046F0B581B0384D39488C
:1055F0006860EFF3108072B6154E164F37603C208E
:10560000286035480078E860286168610120FDF76E
:1056100099FB4B242046FEF731F8502028602046A5
:10562000FEF72CF85A20286037602046FEF726F84F
:10563000FDF7B6FA0020286028490880284800882D
:10564000686062B601B0F0BD282C01406B0A000012
:1056500000300040AAAA000060050020B0B5EFF3BA
:10566000108072B619480078194DFF2802D0FFF754
:105670009FFE25E01748686017480078E8602861B9
:1056800068610320FDF75EFB37202860C8242046B0
:10569000FDF7F4FF0520FDF755FB28202860204684
:1056A000FDF7ECFF0620FDF74DFB19202860204692
:1056B000FDF7E4FFFDF774FA084800210180296036
:1056C00007480088686062B6B0BDC04680F8000830
:1056D000282C01406B0A000060050020FC0400201B
:1056E0005600002010B50A4C607A022808D0012824
:1056F00003D1FDF761FC0020607200F097FE10BD41
:105700000448808BFFF718FD0020607210BDC04672
:10571000A404002020050020B0B503210A050520BF
:10572000000703689343012214051B1903609302C9
:1057300083628B0404689C439304E3180360530260
:1057400083620B0404689C431304E3180360130290
:105750008362094B1C68082525430424A5431D606A
:105760001C680225254395431D60890303688B430C
:10577000D10359180160B0BD00040050F0B5012AF2
:1057800023DB032413462340042A01D200240EE025
:10579000A24300240D5D055505190E1977786F7029
:1057A000B778AF70F678EE70241DA242F2D1002BCC
:1057B0000BD0625C0255012B07D0621C555C8554EE
:1057C000022B02D0A21C515C8154F0BD07484168F5
:1057D000074A0A404032426006490A6840231343A0
:1057E0000B60016801220A430260704730000240EA
:1057F0000000FFFF08380140B0B51B4801680222D5
:10580000114301600168914301601848014608395D
:10581000174A0A600A210160164909788160164911
:10582000C16002460C3A136801210B431360002249
:105830004260124B124CDC60044614349C60114CE4
:1058400024785C60104C1C604B020446143C2568B4
:105850001D43256003680B4303600C4B1A7020380E
:1058600002680A430260B0BD2C10024020040040D0
:1058700001600000F5000020FFFF0000080002406A
:10588000C8050020700000208B090000610800207E
:1058900002480021416001607047C0462404004076
:1058A000F0B587B04622E74B985ACB494143090DE2
:1058B000401A069085B2E54F3879002805923ED00F
:1058C0002724395DF87A0029049426D0002824D0B2
:1058D000680803904820385A0095C04E2F3E002794
:1058E000394632463B46FFF705FD0446D748408E11
:1058F0000095394632463B46D44FFFF7FBFC06463F
:10590000039801F029F9A0B2049C01F01FF9B0B28C
:1059100001F028F9CB4B395DF87A421E90414A429A
:105920004A41024300D055E11C7FFDF739F90A20B6
:10593000FDF794FE002C18D001F09AFD17E03946CF
:105940004827C85B897E002900D0C2E0312800D2F8
:10595000BFE01C7FFDF724F90A20FDF77FFE002C35
:1059600000D1B0E001F084FDAFE001F0C1FD4820BE
:105970000290385A00952E463025984A0024294630
:105980002346FFF7B7FC0390788E00962946934A8A
:1059900001942346FFF7AEFC394607460C46485DA6
:1059A0003546A84A91798842069B0BD9059BD25A65
:1059B0000123009353080A461432FFF79BFCA14AC7
:1059C000034685B202981352B8B2A84219464FD97D
:1059D000039EB0B2A84250D92746A07D002851D0DE
:1059E0000C4606934220385E6321C943D28C4A4359
:1059F00010187B4988620A6C831A0D6B4A6B8E6B98
:105A00005A43CA6308644543AB198D6CAB4200DB53
:105A10002B466D42AB4200DC2B468B63D218CB6A1F
:105A200058431018CA6C904200DB10465242904214
:105A300000DC10464864FBF74CFC6A49FBF7D3FBDB
:105A4000FBF752FC7F4BD98E091A0AB24020185A34
:105A5000824200DB0846D88602B2A1B291420146DA
:105A600000DC2146069CA3B293420CDC20460AE0EF
:105A70003946039EB0B2A842AED833462746A07D31
:105A80000028ADD118468CB2621E21469141020415
:105A900000D0012101290ED10499795C00290AD096
:105AA00080B201F053F8002001F056F8204601F0D2
:105AB00059F807B0F0BD4C48019901604160816020
:105AC000B97607B0F0BD01F013FD01205F4988767B
:105AD000C85B00953024414A002321460493FFF718
:105AE00009FC584A06465948005D91798842069B50
:105AF00008D8D353B0B2A84214D9544FB87D002867
:105B000015D154E0059BD25A0123009353080A464D
:105B10001432FFF7EFFB4B4A034685B2D353B0B2C2
:105B2000A842EAD83346494FB87D00283FD00693B3
:105B30004220385E6321C943D28C4A431018284959
:105B400088620A6C831A0C6B4A6B8E6B5A43CA6369
:105B500008644443A3198C6CA34200DB23466442CF
:105B6000A34200DC23468B63D218CB6A584310183B
:105B7000CA6C904200DB10465242904200DC104654
:105B80004864FBF7A6FB1749FBF72DFBFBF7ACFBC3
:105B90002C4BD98E091A0AB24020185A824200DBD7
:105BA0000846D88601B2069B9AB28A4200DC1846A3
:105BB00001040D4909D02722BA5C002A05D080B221
:105BC00008604860886007B0F0BD049808604860CD
:105BD0008860B87607B0F0BDCDCC0000FF070000AC
:105BE0007800002000401C46342C014010B51549B7
:105BF0004A7815484270CA79C275144A937A5B1E76
:105C00005C425C414474D37A5B1E5C425C418474A8
:105C1000927B521E53425341C3748A78521E5342A0
:105C200053410375CA78521E534253414375097953
:105C3000491E4A424A41827501210902044A00F084
:105C400009F810BD10000020CA060020A40400209E
:105C500000F80008F0B503AF8BB06E46F41D1934A0
:105C6000B26171610546C817800F0B1803201946F1
:105C7000F0608143C91D072291436A46501A99106A
:105C80008546F061B160FBF74AFA706904287461D7
:105C90007CDBB1680A46F3681A40481E032872602C
:105CA00001D200213AE09943F160002319463561A1
:105CB000E818C278120685782D04AA1845782D02B6
:105CC00052193469E55C5219F469E250C27912063E
:105CD00085792D04AA1845792D025219057955198F
:105CE000E2185560C57A2D06847A24046419457A31
:105CF0002D026419057A64199460C47B2406857B9F
:105D00002D042C19457B2D0264193569007B201860
:105D1000D0601033091DF0688842C9D17268002A2A
:105D2000746933D089006818C278120683781B041E
:105D30009A184078000210186A5C8018F269505076
:105D40007268012A22D0081D30602A18D3781B06F9
:105D5000F36093781B04F0681B18527812029A18AB
:105D600030682B5CD218F3691A50706802280DD085
:105D700008316818C278120683781B049A18407894
:105D8000000210186A5C8018F2695050B068A06078
:105D900001203061020444480368134208D00368BC
:105DA000134205D00368134202D003681342F3D1B3
:105DB0004368002B03D4B3695B052DD10AE03B4B4C
:105DC0001C680546083D2C6074695B682B60B369EC
:105DD0005B0521D1446802231C434460B469E40A92
:105DE000E400456825434560446814434460046802
:105DF000144208D00468144205D00468144202D04A
:105E000004681442F3D10468E40701D031690160E9
:105E100044689C4344607469002363602360256880
:105E20002346A468A542316935D2B469241DF460C3
:105E30000DE044688C43446073695C6808345C60BE
:105E40001C68A41C1C601C689D68AC4223D244687A
:105E50000C4344601C68A400F1690C595D68B16989
:105E60006C501C68A400F169641864685D68F1688E
:105E70004C510468144208D00468144205D00468E8
:105E8000144202D004681442F3D10468E407316973
:105E9000CFD00160CDE7C90742680A434260FE1FC8
:105EA000053EB546F0BDC046102002400800002067
:105EB00010B51D4801680222114301600168914339
:105EC00001601A480146083960220A600321016016
:105ED0001749097881605C21C16002460C3A136859
:105EE00001210B431360134A134BD3600346143351
:105EF0009360124B1B7817335360114B13604A02A7
:105F00000346143B1C6814431C6002680A43026089
:105F1000CA03436A134343620A4A11702038026875
:105F20000A43026010BDC0462C100240200400400D
:105F30008E04002008000240CC070020F40000205E
:105F40009B09000061080020F0B5844B1C78002CF0
:105F500000D0F0BD14253C26D4072F4600D037468C
:105F60007F4C678697072F466DD4278657072F46A5
:105F70006ED4E78517072F466FD4A785D7062F461F
:105F800070D4678597062F4671D4278557062F460C
:105F900000D53746E78452B2002A2A466DDBA28438
:105FA000C2072A466ED1628482072A466FD42284B1
:105FB00042072A4670D4E28302072A4671D4A2839C
:105FC000C2062A4672D4628382062A4673D422838A
:105FD00042062A4600D53246E28240B200282846D0
:105FE0006FDBA082C807284670D1608288072846E8
:105FF00071D420824807284672D4E08108072846D9
:1060000073D4A081C806284674D4608188062846C7
:1060100075D420814806284676D4E08048B200280E
:1060200000DA3546A5804F480021416201211970F0
:106030004D4A13684D4D1D40102D6BD1D460034661
:10604000343393606AE03746278657072F4690D54A
:106050003746E78517072F468FD53746A785D706DA
:106060002F468ED53746678597062F468DD53746FE
:10607000278557062F468CD48CE73246A284C20768
:106080002A4690D03246628482072A468FD532460D
:10609000228442072A468ED53246E28302072A46E8
:1060A0008DD53246A283C2062A468CD532466283FB
:1060B00082062A468BD53246228342062A468AD455
:1060C0008AE73046A082C80728468ED030466082D4
:1060D000880728468DD530462082480728468CD52B
:1060E0003046E081080728468BD53046A081C80697
:1060F00028468AD5304660818806284689D53046AC
:1061000020814806284688D53046E08048B20028DD
:1061100087DB87E7946003463433D3605368254CAC
:106120001C401C345460136802241C431460136820
:1061300008241C43146013680B4313604A02C368AD
:106140001343C360026A0A430262CA03436C1343E7
:10615000436402680A430260F0BDC046C8060020DE
:10616000F6000020004401406C0002401040000096
:10617000B0B50E48036808210B4304229343036023
:106180000B4B5C680B4D25400B4C24782C195C6044
:1061900084688025254385601C68012525431D6092
:1061A000036813438B430360B0BDC0460038014011
:1061B000300002400000FFFF34010020F0B581B044
:1061C0008C484178012904D1407E002800D0D0E0DD
:1061D000ADE08A1ED4B2651C03232A461A40032C64
:1061E00002D2831C002412E09D43831C0024824EB3
:1061F0001F786740F45D5F786740F45D9F78674083
:10620000F45DDF786740F45D1B1D2D1FF0D1002A7F
:106210000DD01E786640784DAC5D012A07D05E78BF
:106220006640AC5D022A02D09A786240AC5C427E45
:10623000944200D09DE0182979D1C1780479620791
:10624000520D52186D498A80072212021346E0331C
:1062500045796E011E40E4083419CC80AC0985797B
:10626000AD002C19C579EE07760D34190C81144652
:106270008034067AF70127406D087D194D81154657
:10628000F035477A014638012840360980195B4EBF
:10629000B081F8098E7A76003018CE7AB7077F0D74
:1062A0003818564FF881C032087B87011740B6086E
:1062B000BE19524F3E8240094E7BF600301878825C
:1062C000887BCE7B77077F0D38184C4FB882087CCF
:1062D00047011F40F308FB18484FFB8280094B7CA5
:1062E0009B0018188B7CDE07760D30183883C87C2D
:1062F000C60126405B08F3187B830B7D1C012C40F4
:1063000000092018B883D8094B7D5B0018188B7DD5
:106310009C07640D2018F883C87D44090D7EED00AC
:106320002C197C84800110409A08801838843448E5
:1063300000784000314C2018808832490978324F6B
:1063400000291CD03C46BE340094AE2600253146C0
:106350003A462B46FEF7CEFF2C4908802C480078A1
:106360004000264908188088009431463A462B465A
:106370001EE022480168491C016001B0F0BDAF2851
:1063800001D2002007E03946ED310091AE213023E3
:106390003A46FEF7AFFF1D4908801D4800784000CF
:1063A000201880883946ED310091AE2130233A46DD
:1063B000FEF7A0FF1749088017480121017017490F
:1063C0000020088016490A781649002A024606D09D
:1063D000154B1B88002B08D0088001B0F0BD0A883F
:1063E000521C114B1B88002BF6D11046088001B0BF
:1063F000F0BDC04661050020287700086404002035
:10640000A6040020AF04002012070000F6040020BC
:10641000A7040020D6040020AA040020FC040020C9
:10642000CB040020F2040020EC040020F0B587B07B
:10643000F54EF07A002806D02B24305D002807D0D6
:106440005220305A38E15220305A48217052B7E178
:1064500052200690305A7D22D700EC49897B4B00B0
:10646000D919F57C002D18D0814205976DD2E74AE5
:10647000127FB57AAA4256D1482500270497775350
:106480000125F577377D002F00D18DE0049BF37750
:10649000AA1ADE4B1A77059F48E00D460121854276
:1064A000039131D20295D94B1D7FB37A01959D425C
:1064B00077D1059704942420305C431E98415423DF
:1064C000F35AC82B0B4600D303465624CF4D2C5B02
:1064D0002D8FAC42029900D80346012B069D00D0B7
:1064E00086E0CB48002484610120C84FF8750199EB
:1064F000401A3877FEF722FFB476705BB97B49000B
:10650000059FC919049C77E0069DFA1A824200D9BA
:1065100082E0039DD919814200D2BFE0002182426E
:1065200000D8BEE0BEE0F27F002A0ED10022327514
:10653000B84A00922F3A2F23FEF7DCFE4821705212
:106540000698305AB149897B4B00FA1A824231D9F8
:106550000494B17A01277D1AAC4C247FA5420BD15B
:10656000482400253553F777347D002C21D0F5776A
:10657000A64B1977049C03E0F17F0029049C19D1F4
:10658000002131752F230093A24BFEF7B3FE482163
:1065900070520698305A9D49897B4B000599CA1A5A
:1065A00008E0069D029927E0059FFA1A8242CFD89B
:1065B00000E0049C0121002782420A4606D9059D7D
:1065C0005B19834207D20A4308D071E03A46059D21
:1065D0005B198342F7D339460A4369D14822002127
:1065E000B152F27F002A63D001223275F1775FE069
:1065F000D0007053049C059F864A00922F3A2F23A7
:10660000FEF778FE48217052705B8049897B4B0011
:10661000FA1A824200D87CE70494B17A01230291ED
:10662000591A7A4C247FA14225D12420305C411E86
:1066300088415421715AC829039900D30146562430
:10664000724D2C5B2D8FAC4200D801460129069D6E
:106650000FD16E4902980877CB756D48002484618C
:10666000FEF76CFEB476705B6849897B49007A1A44
:1066700001E077533846049C2F2100910021654B9F
:10668000FEF738FE48217052705B6049897B4B00F1
:10669000FA1A039DD919814200D33FE701218242B2
:1066A00000D80D46002D03D1482100227252B27647
:1066B000315D002900D183E07D21CC0021462F31BE
:1066C000884236D9514D297FB27A91422AD124206D
:1066D000305C421E90415622AA5A2E8F0123002779
:1066E000B2421A4600D83A465426474DAE5BC82EF1
:1066F00000D33B461A400243012A444D0ED1444880
:10670000002686610120E875401A2877FEF716FEFC
:106710003D48867606465220305A03E0522100203A
:10672000394E7052297D4200511A8F4A89184822E9
:10673000B1520146303989B2A1423BD2B17A01222D
:10674000531AF34C257FAB422ED124203746305CC0
:10675000431E98415623E35A268F0025B342134621
:1067600014D95426BE5BC82E15D213400343012B07
:1067700016D121770120E075E74800258561FEF7F5
:10678000DDFD3E46BD765220385A0DE02B4654269C
:10679000BE5BC82EE9D32A4613400343012BE8D041
:1067A000522100203E467852217D4200511A313953
:1067B0004822B1522F2803D8482000213152B17607
:1067C0003078002801D007B0F0BD2224305DD04FD2
:1067D000B97C88420CD93879002809D0FCF7E0F957
:1067E000FEF7ACFD662030555020002131526FE09D
:1067F000B07B002810D04824305B1D282FD85021B2
:106800000022725255E0C046A4040020100000206F
:1068100020050020FF070000707D002854D070780C
:10682000002820D04824305BB96DFB6D00912F21EA
:10683000B84AFEF75FFD0146B848FAF78DFD397A90
:106840004908FAF789FDB087305B2E280BD8502015
:1068500000213152B4480160F748016038E01E2839
:1068600019D11E2025E0F4480468AD4D2046294684
:10687000FAF705FD0028204600D12846FAF734FD36
:1068800050257053A7492046FAF707FD00281FD16D
:10689000302070531CE0797B14224A43824208D98D
:1068A000A02100911E212F23FEF724FD50217052BC
:1068B000305B7A7B14215143814209D8954A00927A
:1068C000A023FEF717FD01E04820305A50217052F6
:1068D0002424305D002800D075E75025705BB17B23
:1068E0002A464A432F3282422CD82720305C002887
:1068F00028D02327F05D00280ED1FCF751F9CD49AF
:10690000C87D002802D100F03DF9CA490120F055A8
:10691000488F44217052B17B4020C64A135A705BA5
:106920004627D25B0092002901D0892100E02F2167
:10693000784AFEF7DFFCF053F07C0028BD4F01D110
:106940000020F077705BB17B69432F3181425ED9C3
:10695000F07E052815D8C046784400794000874469
:106960001205080B0E05C046FFF7FFFFFEF7EAFD14
:1069700007E0FEF7C3FD04E0FEF7EEFC01E0FEF7E2
:1069800033FE0020F076B878002824D02320305C35
:1069900000287DD02020385C3C214143788D42186E
:1069A00010463C3803B2FF2168318B4201DD5F485D
:1069B00010186422B0520246EF3213B28B4201DD4E
:1069C0000246793A6823F2520246773213B28B427A
:1069D00012DC104611E04624002030532321715C64
:1069E000002979D1944988610120F875307B00280D
:1069F0006DD0FDF763F86FE0F13866217052B07B1F
:106A0000012801D101203055462000213152F07F6C
:106A1000002800D0D7E6705B46212E2812D9755A7F
:106A2000727B1423D340844A92699A420BD27A8FA4
:106A3000954201D272521546FA8F954203D972528D
:106A4000154600E0755A4821795A8D4202D94622EE
:106A5000B1520D46B17D002906D03621795E8D42B6
:106A600002DD8DB246217552302800D2ABE6724865
:106A7000446800212046FAF7F4FB002800D0A2E683
:106A80002046FAF731FC28184621705207B0F0BDB5
:106A9000262000213154684881610121F975307B3D
:106AA000002811D0B07B002800D073E74620385A68
:106AB0000691B97A49004018133862217052FEF7E6
:106AC0002BFE0698F07765E7FCF76AF862E7F07F3F
:106AD000002801D1FCF764F8F07FF17C002997D001
